:020000040800F2
:10000000081000209D010008A521000855200008C7
:1000100065210008BD080008592B000800000000F9
:100020000000000000000000000000008122000825
:100030000509000800000000E1210008A5220008D1
:10004000B7010008B7010008B7010008B7010008B0
:10005000B7010008B7010008B7010008B7010008A0
:10006000B7010008B7010008B7010008B701000890
:10007000B7010008B7010008B7010008B701000880
:10008000B7010008B7010008B7010008B701000870
:10009000B7010008B7010008B7010008B701000860
:1000A000B7010008912300086D230008B70100087C
:1000B000B7010008B7010008B7010008B701000840
:1000C000B7010008B7010008B7010008B701000830
:1000D000B7010008192B0008452B0008B7010008DC
:1000E000B7010008B7010008B7010008B701000810
:1000F000B7010008B7010008B7010008B701000800
:10010000000000000000000000000000B70100082F
:10011000B7010008B7010008B7010008B7010008DF
:10012000B7010008B7010008B7010008B7010008CF
:10013000B7010008B701000800000000000000003F
:10014000B7010008B7010008B7010008000000006F
:10015000000000000000000000000000000000009F
:100160000000000000000000B7010008B70100080F
:10017000B7010008000000000000000000000000BF
:1001800000000000B7010008DFF80CD000F00EFB03
:1001900000480047B12C000808100020064880479E
:1001A00006480047FEE7FEE7FEE7FEE7FEE7FEE75C
:1001B000FEE7FEE7FEE7FEE7592300088901000895
:1001C00040EA01039B0703D009E008C9121F08C0D9
:1001D000042AFAD203E011F8013B00F8013B521E59
:1001E000F9D27047D2B201E000F8012B491EFBD2D0
:1001F00070470022F6E710B513460A460446194632
:10020000FFF7F0FF204610BD421E12F8013F002B01
:10021000FBD111F8013B02F8013B002BF9D17047EB
:1002200010B5044604E00B7800F8013B03B1491C0B
:10023000521EF8D2204610BD421C10F8011B0029A6
:10024000FBD1801A704710B5002200E0521C835C7D
:100250008C5CA34201D1002BF8D1D8B2E1B2401A94
:1002600010BD034611F8012B00F8012B002AF9D12B
:100270001846704710B54843044603F0D9FF0028DC
:1002800005D00021002C02D0641E0155FAE710BDF4
:100290002DE9FE4F804681EA0300C00F0C46009016
:1002A00021F0004123F00045B8EB0200A94105D23E
:1002B0004046214690461C460B46024623F000402D
:1002C000104347D0270DC7F30A00C3F30A51029029
:1002D000401A019040286BDAC3F3130040F4801BEE
:1002E0000098924620B10023D2EB030A63EB0B0B7C
:1002F00001985946C0F14002504600F098F9064670
:100300000D4650465946019A00F0B0F910EB08002E
:100310006141002487EA115284EAE7731A4340D00E
:10032000009A62B3019A012A4FEA075215DC001BBA
:1003300061EB02014FF0004202EA0752CDE90042B0
:10034000001C41F5801132462B4600F0B0F903B095
:10035000BDE8F08F40462146F9E7001B61EB020142
:10036000001C41F5801300185B412018A2F500170E
:1003700047EB030140EAD570B6196D4111E06D08F5
:100380004FEA360645EAC0754FEA0752001B61EB9B
:100390000201001C41F5801149084FEA30000019A4
:1003A000514132462B4603B0BDE8F04F00F070B922
:1003B0000098012240000023D0EB020263EBE073BF
:1003C000009821464FEAE074B8EB000061EB0401AD
:1003D000E9E783F000435BE781F0004158E72DE94E
:1003E000FE4F81EA030404F0004421F00041009430
:1003F0004FF0000B23F0004350EA01045ED052EAB4
:1004000003045BD0C3F30A54C1F30A552C44A4F28D
:10041000F3340194A0FB0254C1F3130141F48011A1
:10042000C3F3130343F4801301FB024400FB034EA8
:10043000840A970A44EA815447EA8357A4FB076871
:1004400002958D0A05FB07854FEA932C04FB0C549B
:100450002705029D4FEA065847EA1637B5EB08050F
:100460006EEB070C870E920E47EA811742EA831261
:10047000A7FB0201B6EB0B0164EB00042B0D43EA72
:100480000C335E1844EB1C50DA465146E7FB020180
:10049000C5F313044FEA0B3343EA14534FEA043213
:1004A000019C43EA0603A4F10C040294009CCDE9EC
:1004B00000B400F0FCF803B0BDE8F08F0020014666
:1004C000F9E72DE9F04D81EA030404F0004B21F037
:1004D000004514464FF0000A23F0004150EA05029F
:1004E00020D054EA01021DD0C5F30A570246C5F3D5
:1004F0001303C1F31300C1F30A5640F4801543F40B
:100500008013A7EB0608101BD64608F2FD3873EBE4
:10051000050002D308F1010801E092185B41B8F12F
:10052000000F03DA00200146BDE8F08D00204FF4F3
:100530008011064684460EE0171B73EB050705D3B2
:10054000121B63EB050306434CEA010C49084FEA12
:10055000300092185B4150EA0107EDD152EA0300E6
:1005600012D082EA040083EA0501084305D0101B7B
:10057000AB4106D20122002306E000224FF00043E7
:1005800002E06FF0010253101AEB06004CEB085129
:1005900010EB0A0041EB0B01BDE8F04D00F078B81C
:1005A00030B50B46014600202022012409E021FA43
:1005B00002F59D4205D303FA02F5491B04FA02F540
:1005C0002844151EA2F10102F1DC30BD2DE9F05FD7
:1005D0000546002092469B468846064681464024B2
:1005E0001BE0284641464746224600F02FF8534676
:1005F0005A46C01A914110D311461846224600F0BF
:1006000016F82D1A67EB01084F46224601200021FB
:1006100000F00DF817EB00094E41201EA4F1010473
:10062000DFDC484631462A464346BDE8F09F202A93
:1006300004DB203A00FA02F1002070479140C2F139
:10064000200320FA03F3194390407047202A04DB6B
:10065000203A21FA02F00021704721FA02F3D0403B
:10066000C2F120029140084319467047202A06DB58
:10067000CB17203A41FA02F043EAE07306E041FA70
:1006800002F3D040C2F1200291400843194670475E
:1006900010B5141E73F1000408DA401C41F100018A
:1006A00092185B411A4301D120F0010010BD2DE9E1
:1006B000F04D92469B4611B1B1FA81F202E0B0FAD8
:1006C00080F220329046FFF7B2FF04460F4640EA20
:1006D0000A0041EA0B0153465A46084313D011461B
:1006E00053EA010019D0C8F140025046FFF7AEFFAF
:1006F00005460E46504659464246FFF798FF0843C6
:1007000005D0012004E020463946BDE8F08D0020E8
:10071000054346EAE0762C4337430A986305E40A2A
:10072000A0EB08000022FD0A44EA47540A3002D533
:1007300000200146E9E7010510196941DDE9084596
:1007400000196941BDE8F04DA2E7C1F30A52C1F3B7
:10075000130140F2FF3341F480119A4202DA002083
:100760000146704740F233439A42A2F2334202DC20
:100770005242FFF76BBFFFF75ABF000030B5041EAF
:1007800071F1000404DB4FF00044404264EB0101CE
:10079000141E73F1000405DB1C464FF00043524267
:1007A00063EB0403994208BF904230BD064C074DED
:1007B00006E0E06840F0010394E807009847103431
:1007C000AC42F6D3FFF7E4FC0843000828430008D6
:1007D00030B58C1810F8012B12F00F0301D110F86E
:1007E000013B120906D110F8012B03E010F8015B60
:1007F00001F8015B5B1EF9D101E001F8013B521EDB
:10080000FBD1A142E6D3002030BD000070B540F21C
:10081000243640F21C35C2F20006C2F200053068F0
:100820006968D0F888200978904704468020012123
:10083000FFF720FD002C04460ED030680CA1421CAE
:10084000204603F04BF8204601F0C0FB01F05CFBB2
:100850003068D0F88C108847204603F0C1FC6868E7
:1008600000210170D5E90001012201F05FFA70BD9D
:1008700025730A0080B584B040F27870C2F200009F
:10088000082140F6941CCDE9001043F29530C2F2E5
:10089000000CC0F6000007A180220023CDF808C09C
:1008A00002F0A4FE40F27071C2F20001086004B0D0
:1008B00080BD00BF626E383830000000FEE70000E7
:1008C00040F28820C2F20000002140F6E51242F614
:1008D000954300F1840C0170C0F60002C0F60003DD
:1008E0008CE80E007047000010B50446800003F04D
:1008F0009FFC40F20801C2F20001086008468C60CB
:1009000010BD00007047000080B58AB041F21400AD
:10091000C4F2020001680DF1140E41F400310160CF
:10092000016801F4003105910599816841F40031B5
:100930008160806800F400300590059844F29C20A6
:10094000C0F6000090E80E1000698EE80E100990C5
:100950004FF4C0400090012001900020029003203D
:10096000039069464FF0904000F00EF94FF0904030
:100970004FF4C041002200F0DDF905A94FF090408E
:1009800000F002F90AB080BDB0B54EF21004CEF20C
:1009900000040025EFF3108072B625606560A56045
:1009A00000F02EFC4FF6FF7004EB85010135082D99
:1009B000C1F87001C1F87002F6D162B6B0BD000096
:1009C00040F20044C4F60004EFF3108072B600BF9A
:1009D0002046082100F0A6F94FF47A7000F0C0F824
:1009E000F6E70000B0B582B0044600200D468DF851
:1009F00007108DF8060019A10DF10700FFF723FC81
:100A0000D4F884100131812924BF7F21C4F88410D7
:100A100048B1D4F8840020444570D4F884000130F3
:100A2000C4F8840014E02078012808D12078002838
:100A3000EFD00020207001208DF8060008E0D4F8E7
:100A40008400411C2044C4F88410457001202070AB
:100A50009DF8060000F0010002B0B0BD24000000C7
:100A600070B5FFF751FF44F2E820C0F6000040F2F5
:100A7000380490E82E50D0E90660C2F200042561E7
:100A800040F21C356160C4E90760C2F20005012034
:100A90000121A260E360C4F814C0C4F818E02C601F
:100AA000FFF7E8FB6860262000F0E4F92620022129
:100AB000022200F0E3F9204601F0D0F8002818BF28
:100AC000FFF77EFFD5E90001012201F02FF970BD8B
:100AD000014690F82100022813D10868D1E90FC31C
:100AE000026822F00E020260026822F00102026037
:100AF000012000FA03F2CCF8042081F82100002044
:100B000002E0042088630120002281F82020704741
:100B100080B590F8211002291BD10268D0F834E08A
:100B2000D0E90FC31168BEF1000F21F00E01116072
:100B3000116821F0010111604FF0010101FA03F188
:100B4000CCF804104FF48071018406D0F0470020E7
:100B500080BD04218163012080BD002080BD000094
:100B6000B0B5044600F0ECF8054640F27C20C2F235
:100B700000000078611C18BF044400BF00F0E0F8DA
:100B8000401BA042FAD3B0BD2DE9F04F83B00D68F1
:100B9000002D00F0C38000F138424FEAB22241F24A
:100BA00000070192C4F600070522002600244FF03A
:100BB000010AB84208BF0422009209E00D6804341B
:100BC00035FA0AF20AF1010A06F1020600F0A680DF
:100BD000AAF1010C012202FA0CFB15EA0B09EDD077
:100BE000D1F8048008F00305A5F1010EBEF1010F54
:100BF00011D887680322CB68B24027EA0202B340CB
:100C00001A4382604268C8F3001322EA0B0203FA17
:100C10000CF31A434260032D1CD0C26803238F6873
:100C2000B3409A4307FA06F31A43022DC26011D16A
:100C30006FF0030202EA5C02024404F01C070F2377
:100C4000D2F820E003FA07F50B692EEA0505BB4050
:100C50002B431362026803234F68B3409A4307F0A3
:100C60000303B3401A4317F4403F0260A6D041F299
:100C70001803C4F202031A684FF6084842F0010252
:100C80001A601A68CFF6FF7802F001020292029A07
:100C90002CF0030240F2004CC4F2010C624452F802
:100CA000083004F00C070F25BD4023EA050E019B18
:100CB000009D042B38BF1D4605FA07F747EA0E03CF
:100CC00042F80830DCF800204B6842EA0907DD03EF
:100CD00058BF22EA0907CCF80070DCF804209D0315
:100CE00042EA090758BF22EA0907CCF80470DCF889
:100CF0000820DD0242EA090740F20C4558BF22EA0B
:100D00000907CCF80870C4F201052A689B0242EA80
:100D1000090758BF22EA09072F604FE703B0BDE873
:100D2000F08F0000426902EA0103914341EA034166
:100D3000816170471823002A08BF2823C1507047DB
:100D400040F2B040C2F200000068704740F27C20E0
:100D500040F2B041C2F20000C2F2000100780A681D
:100D6000104408607047000080B542F20000C4F2F1
:100D70000200016841F010010160032000F08EF8CC
:100D80000F2000F005F800F055F8002080BD0000AD
:100D9000B0B586B041F21801C4F202010A680446F7
:100DA00042F400620A60096801A801F4006101913F
:100DB0000199694600F094FA00F0CCFA4DF683618F
:100DC000C4F21B31A0FB01014FF0FF3000EB914159
:100DD00040F2283042F60042C2F20000C4F20102A2
:100DE00040F2E7330025C0E90021C0E90253056164
:100DF000856100F07DFC0546C0B940F22830C2F2A2
:100E0000000000F0A9FC054680B9192000F032F876
:100E10000F2C0AD819202146002200F02FF840F2AA
:100E20008020C2F20000046000E00125284606B0E0
:100E3000B0BD000080B582B041F21800C4F20200DB
:100E40000168002241F001010160016801F0010127
:100E500001910199416841F08051416040680F2142
:100E600000F08050009000986FF0010000F006F84C
:100E700002B080BD80B501F071FE80BD70B5144632
:100E80000D46064601F07AFE2946224601F08CF90D
:100E90000146304601F07AFE70BD000080B501F0D9
:100EA00087FE80BD2DE9F04182B00446807841F292
:100EB0003006C007C4F2020656D056F8140C10F0E3
:100EC00080580BD156F8140C40F0805046F8140CA2
:100ED00056F8140C00F080500190019847F200077A
:100EE000C4F200073868C00512D4386840F4807036
:100EF0003860FFF725FF05463868C00508D4FFF7BE
:100F00001FFF401B6428F7D9032002B0BDE8F08121
:100F100056F8100C10F4407015D0616801F440715F
:100F2000884210D056F8100C40F24042C4F24222DF
:100F3000012320F4407113600023C007136046F8BA
:100F4000101C40F0A28056F8100C616820F440702C
:100F50000843B8F1000F46F8100C05D156F8140CF0
:100F600020F0805046F8140C2068C1071BD181077F
:100F700021D4410727D481062DD4810333D44106DF
:100F80003BD4010741D4C10647D481054DD40106A5
:100F900055D4C1055DD4C10465D480046BD4002050
:100FA00002B0BDE8F0813168A26821F0030111436D
:100FB00031608107DDD53168E26821F440311143A9
:100FC00031604107D7D53168226921F440211143AE
:100FD00031608106D1D53168E26921F010011143F9
:100FE00031608103CBD556F82C1CA26B21F4800113
:100FF000114346F82C1C4106C3D53168226A21F002
:101000002001114331600107BDD53168626921F4C7
:10101000401111433160C106B7D53168A26921F48E
:101020004001114331608105B1D556F82C1CE26AAC
:1010300021F40001114346F82C1C0106A9D556F8ED
:10104000041C626A21F4F871114346F8041CC105BE
:10105000A1D556F8041CA26A21F47851114346F830
:10106000041CC10499D53168226B21F480711143AD
:101070003160800493D53068616B20F400700843C0
:101080003060002002B0BDE8F081FFF759FE054650
:1010900041F2883756F8100C80073FF554AFFFF740
:1010A0004FFE401BB8424FF00300F3D9EAE70000BF
:1010B0002DE9F04381B0002878D042F20008C4F254
:1010C00002080446D8F800000D4600F007008842E8
:1010D0000CD2D8F8000020F007002843C8F8000020
:1010E000D8F8000000F00700A8425FD1206841F264
:1010F00004098107C4F2020907D5D9F80010A268D3
:1011000021F0F0011143C9F80010C00745D1D8F80B
:10111000000000F00700A8420CD9D8F8000020F029
:1011200007002843C8F80000D8F8000000F00700C6
:10113000A8423BD12068410707D5D9F80010E268E2
:1011400021F4E0611143C9F80010000708D5D9F86F
:101150000000216920F4605040EAC100C9F8000095
:1011600000F00AF9D9F8001044F2B022C1F30311DB
:10117000C0F60002515C40F2F41220FA01F140F294
:101180008020C2F200000068C2F200021160FFF786
:10119000FFFD002001B0BDE8F0836068022809D09F
:1011A000012828D159F8041C890307D4012001B073
:1011B000BDE8F08359F8041C8901F7D5D9F800106F
:1011C00021F003010843C9F80000FFF7B9FD064606
:1011D00041F28837D9F80000616800F00C00B0EBEC
:1011E000810F94D0FFF7ACFD801BB842F2D90320E9
:1011F00001B0BDE8F08359F8041C8907D6D5DDE7B6
:1012000070B541F20005C4F20205286840F0010003
:101210002860FFF795FD04462868800706D4FFF78D
:101220008FFD001B0228F7D9032070BD286810210C
:1012300061F3C700286068684CF20C01CFF6FF012B
:1012400008406860FFF77CFD044641F2883600BF25
:10125000686810F00C0F06D0FFF772FD001BB0425B
:10126000F6D9032070BD40F28020C2F2000040F2A7
:10127000F41141F200220068C2F20001C0F27A02C9
:101280000A60FFF785FD00281CBF012070BD28689B
:101290004FF6FF71CFF6F66108402860286820F409
:1012A00080202860FFF74CFD044600BF28688001BD
:1012B00006D5FFF745FD001B0228F7D9032070BDB6
:1012C00000206860E8622863A968012241F41F01D8
:1012D000A96040F2E041C4F24221A8600A6070BDFA
:1012E0000F22026041F20402C4F20202136803F00A
:1012F00003034360136803F0F0038360136803F48F
:10130000E063C36012684FF4E06303EAD202026153
:1013100042F20000C4F20200006800F0070008601A
:101320007047000040F2F410C2F2000000687047FD
:1013300080B5FFF7F7FF41F20401C4F2020109682A
:1013400044F2C022C1F30221C0F60002515CC84041
:1013500080BD000080B5FFF7E5FF41F20401C4F253
:101360000201096844F2C022C1F3C221C0F60002A2
:10137000515CC84080BD000041F2040CC4F2020C74
:10138000DCF8003003F00C00082841F20020C0F225
:101390007A0018BF704744F2C821C3F38342C0F6F5
:1013A00000018A5CDCF82810DB0305D440F600104D
:1013B000C0F23D005043704744F2D82301F00F01C2
:1013C000C0F60003595CB0FBF1F0504370470000D9
:1013D0002DE9F04182B0002800F08F8004460078AB
:1013E00041F20006C007C4F202064BD0706800F05C
:1013F0000C00042806D13068800343D560680028BB
:1014000040D17AE0706800F00C00082802D17068C2
:10141000C003F0D465682DB1B5F5A02F0AD0B5F59D
:10142000803F0BD0306820F480303060306820F48A
:10143000802006E0306840F480203060306840F45E
:1014400080303060F06AA16820F00F000843F0623D
:10145000FFF776FC002D054611D000BF30688003F1
:1014600010D4FFF76DFC401B6428F7D908E100BFDA
:10147000FFF766FC401B64284FF003003AD8306841
:101480008003F5D42078800718D5706810F00C0F11
:1014900007D0706800F00C0008286CD17068C00399
:1014A00069D43068800702D52069012825D13068C9
:1014B000616920F0F80040EAC10030602078000740
:1014C0001FD42078400732D4E56995B1706800F0E8
:1014D0000C00082840F08880012D0ED07068216A29
:1014E00000F480328A4208D1616A00F470108842A8
:1014F00003D1002002B0BDE8F081012002B0BDE8B8
:10150000F081A06900285BD00020C4F242200121B4
:10151000C0F88014FFF714FC054600BF706A80070E
:10152000CFD4FFF70DFC401B0228F7D9A8E0F069E3
:1015300010F0805808D1F06940F08050F061F069F7
:1015400000F080500190019847F20007C4F20007B4
:101550003868C00526D4386840F480703860FFF7DA
:10156000EFFB05463868C0051CD4FFF7E9FB401BBC
:101570006428F7D984E02069002840F20000C4F212
:10158000422053D001210160FFF7DAFB054600BF7E
:10159000306880073FF58BAFFFF7D2FB401B022876
:1015A000F6D96DE0E5681DB1052D51D0012D53D060
:1015B000306A20F001003062306A20F004004EE012
:1015C0000020C4F242200021C0F88014FFF7B8FBCD
:1015D000054600BF706A80077FF573AFFFF7B0FB69
:1015E000401B0228F6D94BE00027C4F24227002016
:1015F0003866FFF7A5FB022D05460BD13068800148
:1016000056D5FFF79DFB401B02284FF00300F5D98C
:1016100070E700BF306880017FF56BAFFFF790FB8C
:10162000401B02284FF00300F4D963E7002101605A
:10163000FFF786FB054600BF306880077FF53EAFA9
:10164000FFF77EFB401B02284FF00300F4D951E75F
:10165000306A40F004003062306A40F001003062CD
:10166000FFF76EFB002D054641F2883714D000BF0E
:10167000306A800713D4FFF763FB401BB842F7D9E9
:10168000032002B0BDE8F081FFF75AFB401BB842CF
:101690004FF003003FF62EAF306A8007F4D4B8F164
:1016A000000F7FF411AFF06920F08050F0610BE77C
:1016B0007068D4E9082120F4741008431043706066
:1016C00001203866FFF73CFB044600BF306880010C
:1016D0003FF50FAFFFF734FB001B02284FF003006C
:1016E000F4D907E77047000070470000704700001A
:1016F000002804BF0120704710B5044690F83D0053
:1017000028B9002084F83C00204600F023F802208D
:1017100084F83D002068211D00F042FE012084F87D
:10172000480084F83E0084F83F0084F8400084F8C4
:10173000410084F8420084F8430084F8440084F8AF
:10174000450084F8460084F8470084F83D000020F6
:1017500010BD00007047000090F83D1001291CBF2B
:1017600001207047022180F83D10016842F6FF32E7
:10177000C868C4F20102914240F00100C8600FDC69
:10178000B1F1804F1ED040F20040C4F2000081420F
:1017900018D040F60000C4F20000814212D024E0CC
:1017A00042F60040C4F2010081420BD044F2000036
:1017B000C4F20100814205D043F20040C4F20100AE
:1017C000814212D188680722C0F201020240062A33
:1017D0004FF000000ED0B2F5803F08BF7047086898
:1017E00040F00100086000207047086840F00100E8
:1017F00008600020704700007047000010B50446E4
:1018000000680169890744BFC1685FEA817140D4FB
:1018100020680169490744BFC1685FEA417144D447
:1018200020680169090744BFC1685FEA017149D4B2
:1018300020680169C90644BFC1685FEAC1614DD42F
:1018400020680169C9071CBFC1685FEAC17152D134
:1018500020680169090644BFC1685FEA016151D48B
:1018600020680169C90544BFC1685FEA016150D4BD
:1018700020680169490644BFC1685FEA41614FD4ED
:1018800020680169890644BFC1685FEA81614ED45E
:1018900010BD6FF00201016101212177806980078D
:1018A0004CD02046FFF7A8FF4EE06FF00401016125
:1018B00002212177806910F4407F48D02046FFF74D
:1018C0009BFF4AE06FF00801016104212177C069A4
:1018D000800745D02046FFF78FFF47E06FF01001EB
:1018E000016108212177C06910F4407F41D0204672
:1018F000FFF782FF43E06FF001010161204600F035
:1019000045F8A5E76FF0800101612046FFF7ECFE86
:10191000A6E76FF4807101612046FFF7E3FEA7E7B9
:101920006FF040010161204600F03CF8A8E76FF03D
:10193000200101612046FFF7D9FE10BD204600F0CE
:1019400021F8204600F020F80020207760E72046AC
:1019500000F018F8204600F017F8002020775FE725
:10196000204600F00FF8204600F00EF80020207707
:101970005EE7204600F006F8204600F005F800205B
:1019800020775DE7704700007047000080B5006871
:1019900042F60041C4F20101884208BFFFF7D6F9C0
:1019A00080BD0000704700007047000070470000D5
:1019B00070470000816FC06F08437047B0B50446A0
:1019C000006840F62F03C169026885680B40202B30
:1019D00002F0200E07D1BEF1000F04D0616E99B362
:1019E00020468847B0BD40F60F03194213D040F29D
:1019F0002013C0F2004305F0010C134013EB0C035D
:101A000009D0CB0718BF12F4807340F0A2808B0777
:101A100000F1A980B2E0D4F860C00A40D3063AD5FC
:101A2000BCF1010F37D110210162806840063ED41D
:101A3000B4F85800B4F85A10B4F85A20002A1CBF61
:101A4000401A5FEA004101D1B0BD00BF216851E8F2
:101A5000001F226821F4907142E80013002BF5D199
:101A6000216851E8021F226821F0010142E80213B7
:101A7000002BF5D12021E16700212166616600BFBE
:101A8000216851E8001F226821F0100142E800138C
:101A9000002BF5D14EE0C90251D515F480014ED08E
:101AA0004FF4801101622046FFF780FFB0BD206F28
:101AB000016849688AB2002AC6D0B4F858309A4200
:101AC000C2D2A4F85A10806920282ED0206850E88D
:101AD000000F216820F4807041E80002002AF5D14F
:101AE000206850E8020F216820F0010041E802025E
:101AF000002AF5D1206850E8020F216820F040004C
:101B000041E80202002AF5D12020E067002020668B
:101B1000206850E8000F216820F0100041E8000222
:101B2000002AF5D1206FFEF7D3FFB4F85800B4F8BF
:101B30005A10401A81B22046FFF736FFB0BD10069A
:101B400000F18780500658BFB0BD204600F084FDEC
:101B5000B0BD01230362D4F8803043F00103C4F820
:101B600080308B070AD5BCF1000F07D00223036237
:101B7000D4F8803043F00403C4F880304B070AD512
:101B8000BCF1000F07D004230362D4F8803043F087
:101B90000203C4F880300B070AD55CEA0E0307D0B5
:101BA00008230362D4F8803043F00803C4F880307F
:101BB0000B050BD512F0806308D04FF4006303626D
:101BC000D4F8800040F02000C4F88000D4F88000F1
:101BD00000283FF439AF02EA0100800603D5616EA8
:101BE00009B1204688472068D4F88010806801F049
:101BF000280100F04000401824D0204600F004FDE9
:101C000020688068400619D5206850E8020F2168D6
:101C100020F0400041E80202002AF5D1206F68B1AF
:101C200042F2F551C0F600014163FEF771FF002852
:101C30003FF40AAF206F416B8847B0BD2046FFF7E5
:101C4000B7FEB0BD2046FFF7B3FE0020C4F8800009
:101C5000B0BDA16E00297FF4C3AEF5E610B5A0B10A
:101C60000446806F28B9002084F87400204600F0F4
:101C700025F82420A0672068016821F00101016097
:101C8000204600F0A1FD012801D1012010BD606AAD
:101C900010B1204600F004FC2068416821F4904116
:101CA0004160816821F02A018160016841F00101F1
:101CB0000160204600F068FC10BD000080B586B0D1
:101CC000006843F60002C4F2010200219042CDE90F
:101CD0000411CDE90211019101D006B080BD41F29D
:101CE0001400C4F20200426842F48042426042683A
:101CF00002F480420092009A026842F400320260CC
:101D0000006800F40030009000984FF4C06001902B
:101D10000220CDE90201032004900720059001A9CB
:101D20004FF09040FEF730FF06B080BD80B5C36F26
:101D3000202B0BD100294FF0010318BF002A01D13D
:101D4000184680BD90F87430012B01D1022080BD6F
:101D5000012380F874300023036603685B681B026C
:101D60000CD500BF036853E800CFD0F800E04CF07A
:101D700080634EE8003CBCF1000FF3D100F010FE90
:101D80000023184680BD000070B588B00446006886
:101D900044F20041C4F20001884221D043F6000120
:101DA000C4F2010188422CD140F2F815C2F20005BC
:101DB000688829180E79411C0028698008BFFF2E09
:101DC00001D1FEF7E1FD2846314600F03BFA688874
:101DD00001222844011D204600F0E2FD08B070BD3C
:101DE00000F0C2F9446900F0BFF900260221022286
:101DF0000023CDE90066CDE90266CDE904660696CA
:101E0000A04708B070BD00002DE9F04381B0044642
:101E1000806F20280BD10E4600294FF001005AD0C8
:101E20001746002A57D094F87400012803D10220E5
:101E300001B0BDE8F083012084F874004FF0000980
:101E400021201D46C4F88090A067FEF779FFA4F812
:101E50005070A4F85270A1680746B1F5805F07D1B1
:101E6000206900281CBF30464E46B046064601E0B9
:101E70004FF0000884F8749009E000BF16F8010BD9
:101E800021680885B4F852000138A4F85200B4F86B
:101E9000520088B12046802100223B46009500F088
:101EA000C9FD88B9002EE9D138F8020B21686FF31B
:101EB0005F2008850026E5E72046402100223B46BA
:101EC000009500F0B7FD18B1032001B0BDE8F08324
:101ED0002020A067002001B0BDE8F083704700001B
:101EE00010B540F22040C2F2000004682068B0F84B
:101EF00004110430FEF77DF920680021A0F80411D8
:101F000010BD00000020704710B582B040F22440A0
:101F1000C2F20000FFF74EFD68B140F22044C2F269
:101F20000004206843F600030168C4F20103086856
:101F300002689A4201D002B010BDB1F80421002A13
:101F4000F9D004316423FFF75FFF58B12068032103
:101F500000688DF8071000680DF107010122642365
:101F6000FFF752FF20684069804702B010BD0000B3
:101F7000B0B540F27435C2F20005287840F2204432
:101F8000C2F2000408B12068B0BD00F0C7F840F20A
:101F9000C410C2F200002060012028702520FEF746
:101FA00069FF252001210122FEF768FF40F2F810A9
:101FB000C2F20000418801220844011D40F2244081
:101FC000C2F20000FFF7B2FE2068B0BDB0B5044613
:101FD00040F22440C2F20000FFF7ECFC98B140F25E
:101FE0002045C2F200052868214600680430FEF74B
:101FF0000BF92046FEF720F929680968B1F8042199
:102000001044A1F804010020B0BD000070B50546E1
:1020100040F22440C2F200000C46FFF7CBFCB0B106
:1020200040F22046C2F20006306822460068B0F84E
:102030000411084404302946FEF7C2F830680068ED
:10204000B0F804112144A0F80411002070BD012053
:1020500070BD0000FEE70000F0B581B090ED021AFF
:102060000446B8EE411ABDEEC11AB8EEC11A21EE0F
:10207000000ABDEEC00A10EE107AB80002F0D8F8DF
:10208000054648B1266828463146FEF7EAF830464C
:1020900002F0A6F82560A760002D18BF012528468C
:1020A00001B0F0BD70B586B0002541F21400059571
:1020B000CDE90355CDE90155C4F20200016840F2B3
:1020C000004441F4800101600168C4F6000401F499
:1020D0008001009100990168002241F40031016003
:1020E0000168082601F4003100910099016841F46B
:1020F000802101600068082100F480200090009891
:102100002046FEF717FE0120CDE9020501A9204671
:1021100001960495FEF738FD06B070BD80B540F21B
:10212000244043F60001C2F20000C4F20101002382
:102130004FF00C0C4FF4E13280E80E00C0E903339D
:10214000C0E905C3C0E907334362FFF787FD0028F4
:1021500018BFFEF735FC40F22440C2F20000FFF742
:10216000ADFD80BDFEE7000040F21830C2F2000075
:102170000068704780B5052000F006F840F218317D
:10218000C2F20001086080BD10B505200C210524B5
:10219000FEF770F840F2DC11C2F200010860084658
:1021A0004C6010BDFEE7000000F0070080F0070360
:1021B000042B28BF04234FF0FF3C03380CFA03F331
:1021C00038BF0020994381400CFA00F022EA000059
:1021D00008437047000000000000000000000000FD
:1021E000EFF30980BFF36F8F154B1A681EF0100FC5
:1021F00008BF20ED108A20E9F04F10602DE909009A
:102200004FF0500080F31188BFF34F8FBFF36F8FF3
:1022100001F01EF94FF0000080F31188BDE80900BD
:1022200019680868B0E8F04F1EF0100F08BFB0EC56
:10223000108A80F30988BFF36F8F704700BF00BF1B
:102240008403002010B5FE290FD1044640880028E1
:1022500008BF10BD05A0FFF7B9FEFFF755FE618866
:10226000201DFDF7C6FF0020608010BD636C656116
:1022700072206C697374730D0A0000000000000086
:10228000074B19680868B0E8F04F80F30988BFF37E
:102290006F8F4FF0000080F31188704700BF00BFC0
:1022A0008403002080B54FF0500080F31188BFF305
:1022B0006F8FBFF34F8F01F0D3F930B14EF604505A
:1022C000CEF200004FF080510160002080F31188B1
:1022D00080BD000070B59EB014AC20462821FDF7EB
:1022E00088FF002568463C211395CDE91155CDE9BD
:1022F0000F55FDF77EFF0120149018904FF4E01069
:102300004FF4803102261D902046CDE91515CDE908
:102310001B61FFF75DF8002818BFFEF751FB0F2087
:10232000CDE90F064FF48060CDE912050FA8022118
:102330001195FEF7BDFE002818BFFEF741FB0120F6
:102340000090002002906846FEF7ACFD002818BF00
:10235000FEF736FB1EB070BD4EF68850CEF2000080
:10236000016841F4700101607047000080B503A06E
:10237000FFF72CFEFFF7C8FD80BD00BF54494D316B
:10238000375F49525148616E646C6572200D0A00D6
:1023900080B540F22830C2F20000FFF72FFA80BD6E
:1023A00080B540F2FF7C0268C4F2000C604512DD8B
:1023B00040F60003C4F20003984215D043F20043F4
:1023C000C4F2010398420FD042F60043C4F2010365
:1023D000984209D00CE0B0F1804F05D040F20043A4
:1023E000C4F20003984203D14B6822F070021A43F2
:1023F00043F2FF33C4F20103984209DC604516DC66
:10240000B0F1804F28D040F20043C4F2000321E035
:1024100044F2FF33C4F20103984211DC43F200435B
:10242000C4F20103984217D044F2000310E040F6D2
:102430000003C4F2000398420ED042F6004307E0C6
:1024400044F60003C4F20103984205D044F200436D
:10245000C4F20103984203D1CB6822F440721A43BC
:102460004B6922F0800E8A6843EA0E03D1F800C05F
:102470000360C262A0F18042A2F596324FEAB22216
:10248000072AC0F828C007D8012303FA02F212F085
:10249000E50F1CBF096901630121416180BD000096
:1024A00080B5416ACA070CD18A0715D44A071ED4E1
:1024B0000A0727D4CA0630D48A0639D44A0657D523
:1024C00041E00268D0F828C0536823F4003343EA9F
:1024D0000C0353608A07E9D50268D0F82CC0536812
:1024E00023F4803343EA0C0353604A07E0D50268C3
:1024F000D0F830C0536823F4802343EA0C035360C0
:102500000A07D7D50268D0F834C0536823F40043D3
:1025100043EA0C035360CA06CED50268D0F838C02F
:10252000936823F4805343EA0C0393608A06C5D56D
:102530000268D0F83CC0936823F4005343EA0C03CC
:1025400093604A0614D50268D0F840C05368BCF5C1
:10255000801F23F4801343EA0C03536008D1D2F8A0
:1025600004C0D0F844E02CF4C00343EA0E035360E7
:10257000090658BF80BD0168806C4A6822F40022B9
:102580001043486080BD0000B0B582B00446002012
:10259000C4F88000FEF7D4FB2168054609680907E6
:1025A0000BD56FF07E4C20464FF4001100222B46D5
:1025B000CDF800C000F03EFA78B920680068400706
:1025C0000ED56FF07E4C20464FF4800100222B4642
:1025D000CDF800C000F02EFA10B1032002B0B0BD5B
:1025E0002020A067E0670020206684F8740002B015
:1025F000B0BD000080B5406A0021A0F85A10A0F8D4
:102600005210FFF7D5F980BD016851E8001F02683C
:1026100021F4907142E80013002BF5D1016851E8D4
:10262000021F026821F0010142E80213002BF5D1DC
:10263000016E01290AD100BF016851E8001F02683C
:1026400021F0100142E80013002BF5D12021C167D1
:10265000002101664166704780B500BF016851E8FE
:10266000001F026821F0400142E80013002BF5D161
:102670002021816700218166FFF730FC80BD0000CA
:1026800080B5B0F85C100268C36F222B41D1928CE8
:10269000436D114023F8021B4365B0F85A1001390D
:1026A000A0F85A10B0F85A10002918BF80BD00BF1A
:1026B000016851E8001F026821F4907142E800139C
:1026C000002BF5D1016851E8021F026821F00101D9
:1026D00042E80213002BF5D12021C1670021416699
:1026E000026E012A1AD10166016851E8001F0268D2
:1026F00021F0100142E80013002BF5D10168CA69EE
:10270000D20644BF10220A62B0F85810FFF74CF905
:1027100080BD906940F00800906180BDFFF734FBF8
:1027200080BD000080B5B0F85C100268C36F222B3A
:1027300041D1928C436D11401970416D0131416559
:10274000B0F85A100139A0F85A10B0F85A10002900
:1027500018BF80BD016851E8001F026821F4907124
:1027600042E80013002BF5D1016851E8021F02680E
:1027700021F0010142E80213002BF5D12021C167AD
:1027800000214166026E012A1AD10166016851E8F2
:10279000001F026821F0100142E80013002BF5D160
:1027A0000168CA69D20644BF10220A62B0F8581004
:1027B000FFF7FAF880BD906940F00800906180BD95
:1027C000FFF7E2FA80BD0000B0B5044602688068F9
:1027D000D4E9033165690143D4F81CC02943156865
:1027E00049F20C6041EA0C0125EA00000843106040
:1027F000506820F4405018435060A069216A9368E3
:10280000084323F430610843906044F6FF30C4F27B
:10281000000082424FF0100118DD44F60040C4F27F
:102820000000824225D045F20000C4F2000082423E
:1028300026D043F60000C4F20100824232D141F2B8
:102840003000C4F20200016851A227E044F20040C7
:10285000C4F2000082421AD044F60000C4F2000024
:1028600082421FD141F23000C4F202000068810CA4
:1028700013E041F23000C4F202000068010D0CE0E8
:1028800041F23000C4F202000068810D05E041F21F
:102890003000C4F202000068010C39A201F003000C
:1028A00052F8201041F20020BCF5004FC0F27A002F
:1028B0000ED1082920D80025DFE801F00519251ED2
:1028C000221E1E1E38000025FEF732FDE0B94BE047
:1028D000082936D80025DFE801F0052F3B343834CD
:1028E00034344C000025FEF723FD90BB3CE000256E
:1028F000FEF730FD40B937E00020012520B933E074
:102900000025FEF739FD78B361684A0802EB400004
:10291000B0FBF1F14FF6F070084005D0C1F3420171
:1029200022680843D0601FE001251DE04FF40040FD
:1029300000250028E8D117E00025FEF70BFD40B97F
:1029400012E00020012520B90EE00025FEF714FD5D
:1029500050B1616800EB5100B0FBF1F080B210287B
:1029600026BF2168C8600125002128466166A1664E
:10297000B0BD4FF4004000250028EAD1F4E700BFC5
:102980000000000004000000080000000200000039
:102990000100000004000000080000000200000028
:1029A0004165A0F85820A0F85A20816800224266AC
:1029B00039B1B1F5805F08D1016941B940F2FF1129
:1029C00006E0016919B17F2102E0002100E0FF214A
:1029D000A0F85C100021C0F880102221C16700BF60
:1029E000016851E8021F026841F0010142E8021348
:1029F000002BF5D18168B1F5805F01D1016999B1F2
:102A000042F22571C0F600014166002180F8741081
:102A1000016851E8001F026841F4907142E8001318
:102A2000002BF5D10020704742F28161C0F6000111
:102A3000EAE700002DE9F04381B004460068C06970
:102A40000840401AB0FA80F04009904260D1DDF8A9
:102A5000208015460E46994608F1010709E000BF9F
:102A60002068C0693040801BB0FA80F04009A8425D
:102A70004ED1002FF4D0FEF763F9B8F1000F29D042
:102A8000A0EB0900404525D820680168490744BFEC
:102A9000C1695FEA0151E3D54FF40061016200BFF3
:102AA000206850E8000F216820F4D07041E800024F
:102AB000002AF5D1206850E8020F216820F00100BB
:102AC00041E80202002AF5D12020A067E067C4F89F
:102AD000800016E0206850E8000F216820F4D070D4
:102AE00041E80002002AF5D1206850E8020F216871
:102AF00020F0010041E80202002AF5D12020A06761
:102B0000E067002084F87400032001B0BDE8F08382
:102B1000002001B0BDE8F08380B540F22440C2F24D
:102B20000000FEF74BFF40F2F810C2F200004188AF
:102B30000A18002918BF501E0430FFF747FAFFF7A4
:102B4000E3F980BD80B540F21C30C2F2000000689D
:102B5000FEF734FF80BD0000FEE70000002848BFFC
:102B6000704700F01F01012202FA01F14EF200123B
:102B70004009CEF2000242F8201070474EF60C5089
:102B8000CEF200000068C0F3022070474EF61453E6
:102B900000F00F02CEF2000309011A4400F1604375
:102BA000B0F1FF3FC8BF03F56442117070470000E9
:102BB0004EF60C51CEF200010A684FF6FF031A40A0
:102BC00060F30A2242F0806040F0FD7008607047B8
:102BD000D0E90001002918BF013900EB81007047DE
:102BE00010B50446FFF7F4FFD4E9011200290B46A3
:102BF00018BF0123914218BF00EB830010BD0000F5
:102C000010B5044600686168FDF7F3FA00206060C3
:102C100010BD00004068B0FA80F040097047000025
:102C200070B586680C468E4211D9054600686A6800
:102C30002044411C121BFDF7F3FAD5E9000100EB1B
:102C40008100002140F8041C686801386860002099
:102C5000A64288BF012070BDF0B581B0044640682F
:102C600060B10D460027002622683146D019A847DA
:102C700060680136864207F10407F5D301B0F0BD64
:102C800082688A4292BF4FF0FF30006850F82100FE
:102C90007047000010B5D0F8841004460130FDF7ED
:102CA000A8FA01202421C4F884006170207010BDAE
:102CB00080B5FEF759F8FFF70DFBFFF7F3F9FFF7C3
:102CC00057F941F65830FDF74BFFFFF753FAFDF780
:102CD000D1FD00F075FB00F0B5F8002080BD0000CC
:102CE0002DE9F04F87B0834680680591002841D0D8
:102CF0001D469046002105E00699DBF808000131E9
:102D0000814237D2DBF8000001EB4109069150F80F
:102D100029000599DDE91446DDF840A08842EBD191
:102D2000DBF8000000EB8900406841680029E3D02F
:102D3000002700BF4269394690478446129801A98E
:102D400000901398119B51C12946A6462C46354642
:102D5000169E4046524604962E4625467446E04747
:102D6000DBF80000013700EB8900406841688F42C2
:102D7000E0D3C1E707B0BDE8F08F000080B58168FF
:102D8000002918BF012117D0D0F800C0DCF80030AE
:102D9000934211D00CF10C0C002300BF8168013369
:102DA0008B424FF0000138BF012105D2DCF800E072
:102DB0000CF10C0C9645F1D1084680BD10B5826827
:102DC000531C042B88BF10BD036802EB4202D1E9FB
:102DD00000E4896803EB820C43F822E0CCE901416E
:102DE00081680131816010BD70470000F0B581B08D
:102DF0000446002015468DF8030020460A460E467C
:102E0000FFF7BCFF8DF803009DF80300C00718D141
:102E10009DF80300C00712D140F27837C2F20007D4
:102E20000020B86014203E60FDF75EFDC3692946AE
:102E300000227860984720463946FFF7BFFF01B06F
:102E4000F0BDFEDE80B500F0BBFA002080BD0000C2
:102E500070B5044600F00AFA40F2B440C2F2000035
:102E6000016840F2843501310160C2F20005296831
:102E700040F27476C2F2000641B1306860B9286849
:102E8000E16AC06A884298BF2C6005E02C60006847
:102E9000012801D100F0CAF840F2C440C2F200009B
:102EA000016840F2C84201310160E06AC2F20002EA
:102EB0000121136881401943116040F2943100EB05
:102EC0008000C2F2000101EB8000211D00F0B6F984
:102ED00000F0F0F9306880B12868E16AC06A884281
:102EE00028BF70BD4EF60450CEF200004FF0805166
:102EF0000160BFF34F8FBFF36F8F70BDF0B581B02E
:102F000040F2B845C2F200052868E0B140F6E81684
:102F100040F2B447C2F20006C2F2000700F0A6F980
:102F2000F068C468201D00F059F93868013838602D
:102F300028680138286000F0BDF9204600F006F846
:102F400028680028EAD101B0F0BD000010B50446A1
:102F500090F85100022808BF10BD012803D030B9F5
:102F6000206B00F0BFF9204600F0BCF910BD4FF017
:102F7000500080F31188BFF36F8FBFF34F8F00BFF6
:102F8000FEE7000040F294344EF60455C2F200040D
:102F9000CEF200054FF08056FFF7B0FF2068022800
:102FA000FAD32E60BFF34F8FBFF36F8FF4E70000AB
:102FB0002DE9F047DDE909878246386B089C00EB74
:102FC00082000438994620F0070600200A5C3B186E
:102FD00083F834200A5C1AB10F2800F10100F5D300
:102FE0000025381D87F84350062C28BF0624FC62B4
:102FF000C7E9114500F01EF907F1180000F01AF9B1
:1030000084F00700B861304651464A463F617F620E
:10301000FD6487F8505000F0B1F8B8F1000F386047
:1030200018BFC8F80070BDE8F0870000B0B540F2E6
:1030300094350024C2F20005281900F0EFF814348A
:103040008C2CF9D140F2D044C2F20004204600F0AA
:10305000E5F840F2E445C2F20005284600F0DEF84B
:1030600040F25C70C2F2000000F0D8F840F6E810C0
:10307000C2F2000000F0D2F840F68010C2F2000068
:1030800000F0CCF840F28830C2F20000046040F258
:103090009030C2F200000560B0BD000080B540F67F
:1030A0007812C2F2000200BF114612688242FBD3BE
:1030B000D1F804C001EB0C03834203D140686044A3
:1030C00048600846D0F804C000EB0C03934201D0DE
:1030D00013460BE040F28C33C2F200031B689A42A5
:1030E00004D0D2E9003E0EEB0C0242608142036044
:1030F00018BF086080BD000008480068006880F3C1
:1031000008884FF0000080F3148862B661B6BFF300
:103110004F8FBFF36F8F00DF00BF00BF08ED00E0EF
:1031200040F28830C2F200000168096821B10068ED
:10313000C068C068406801E04FF0FF3040F2547151
:10314000C2F200010860704781B00020009040F298
:103150008420C2F2000000684FF0500181F3118812
:10316000BFF36F8FBFF34F8F013001D0FEE700BF79
:1031700000980028FCD001B070470000034643F2DD
:103180004910C0F600004FF0807C21F0010103E9F6
:1031900003106FF0020043F8240CA3F1440043F83D
:1031A000202C704770B504468068904212D90E46B4
:1031B00061681546814205D1B7EE080A2046FEF740
:1031C0004BFF38B1206840F82560606801306060CE
:1031D000012070BD002070BD40687047D0E9013209
:1031E00001699A60D1F804C082688445536008BFC1
:1031F0004A60002202610868013808600868704768
:1032000040F20073C2F20003036040F2FC40C2F2DD
:103210000000086080201060704700004FF0FF3110
:10322000024642F8081F00214260C0E90322016003
:10323000704700000021016170470000D0F800C015
:10324000436808619A684B608A609A689960516027
:103250000CF1010101607047DFF80C00016841F4D6
:1032600070010160704700BF88ED00E04FF0500032
:1032700080F31188BFF36F8FBFF34F8F40F284202C
:10328000C2F2000001684A1C026001B170474EF6AC
:103290000450CEF200000068000608BF70474FF0EF
:1032A000500080F31188BFF36F8FBFF34F8F00BFC3
:1032B000FEE7000040F28420C2F20000016839B14C
:1032C0000139016018BF7047002080F311887047F2
:1032D0004FF0500080F31188BFF36F8FBFF34F8F13
:1032E000FEE70000B0B5002808BFB0BD044640F2BC
:1032F000CC40C2F20000007854F8041C002818BF2B
:103300004FF0004008420CD0A4F108052A6892B1A1
:103310004FF0500080F31188BFF36F8FBFF34F8FD2
:10332000FEE74FF0500080F31188BFF36F8FBFF3BB
:103330004F8F00BFFEE721EA000044F8040C00F0C4
:103340007FF840F2F841C2F2000154F8040C0A6818
:10335000104408602846FFF7A1FE00F033FAB0BD24
:103360004EF21000CEF2000000210160816040F2B8
:10337000F411C2F20001096844F6D352C1F26202AC
:10338000A1FB02124FF0FF3101EB921141600721C6
:103390000160704710B5FDF763FBFDF791FA40F24D
:1033A0002431C2F200010860FEF7DEFEC468FEF7B9
:1033B000DBFE40F60D02C0F600020221A04710BD60
:1033C00010B586B0002405A804A903AACDE90444D9
:1033D000FFF716FFDDE9032005990023CDE9010180
:1033E00042F68570C0F6000013A1009400F0FEF8CC
:1033F00040F2FC61C2F200010860D8B14FF0500009
:1034000080F31188BFF36F8FBFF34F8F40F254707A
:10341000C2F200004FF0FF31016040F27470C2F25E
:1034200000000121016040F6FC10C2F200000460BF
:1034300000F052F806B010BD49444C4500000000B1
:1034400040F2C040C2F200000168013101607047E3
:1034500040F2C040C2F20000006830B140F60020E7
:10346000C2F2000001210160704740F60020C2F264
:1034700000000021016040F2C840C2F20000006874
:10348000B0FA80F0C0B2C0F11F0040F2943100EBFE
:103490008000C2F2000151F8202092B101EB8000BF
:1034A00050F8041F4968021D9142016001D149682A
:1034B0000160006840F28431C068C2F20001086017
:1034C00070474FF0500080F31188BFF36F8FBFF348
:1034D0004F8F00BFFEE7000080B582B04EF2004083
:1034E000CEF200004CF27021C4F20F11D0F8002986
:1034F0004B1C9A4209D14FF0500080F31188BFF362
:103500006F8FBFF34F8F00BFFEE7D0F800298A42CC
:1035100009D14FF0500080F31188BFF36F8FBFF3D4
:103520004F8F00BFFEE7017840F2A8420191FF21D2
:1035300001700178C2F200028DF803109DF80310AB
:1035400001F05001117040F2AC41C2F200010722BB
:103550000A609DF90320B2F1FF3F0CDC0A6800BF4E
:103560009DF80330013A5B008DF803309DF903307C
:10357000002BF5D40A600A68032A2DD14FF4E063CA
:1035800003EA02220A6001990170D0F8201941F47F
:103590007001C0F82019D0F8201941F07041C0F82E
:1035A0002019FFF7DDFE40F28420C2F20000002166
:1035B0000160FFF751FE4EF63470CEF20000016854
:1035C00041F040410160FFF797FDFFF741FFFFF732
:1035D000BBFD002002B080BD4FF0500080F3118889
:1035E000BFF36F8FBFF34F8FFEE7000070B586B05B
:1035F0000B9CBCB10C9EF6B154250495049D542D32
:1036000023D10A9D3463022486F8514005ACCDE9EC
:1036100000540296FFF7CCFC3046FFF719FC0598E2
:1036200006B070BD4FF0500080F31188BFF36F8F6C
:10363000BFF34F8FFEE74FF0500080F31188BFF3C8
:103640006F8FBFF34F8F00BFFEE74FF0500080F346
:103650001188BFF36F8FBFF34F8F00BFFEE70000ED
:103660002DE9F04F81B040F2C040C2F20000006886
:1036700040B140F2BC40C2F20000016800240131B8
:10368000016093E040F6FC10C2F2000001684E1C9D
:10369000066021D340F28830C2F200000168096858
:1036A00049B14FF0500080F31188BFF36F8FBFF323
:1036B0004F8F00BFFEE740F29032C2F20002016875
:1036C0001368036040F258701160C2F20000016894
:1036D00001310160FFF724FD40F25471C2F2000194
:1036E000086840F2843A8642C2F2000A01D20024FD
:1036F0004EE040F2883BC2F2000BDBF800000024F1
:103700000068D8B340F2C8490127C2F200091FE09F
:10371000D8F82C00D9F8001007FA00F21143C9F8C4
:10372000001040F2943100EB8000C2F2000101EB86
:1037300080002946FFF782FDD8F82C00DAF8001047
:10374000C96ADBF800208842106828BF3C46C0B137
:10375000DBF80000C068D0F80C80454655F8040F2F
:10376000864210D32846FFF739FDD8F828000028F4
:10377000CED008F11800FFF731FDC9E74FF0FF3058
:1037800005E04FF0FF3040F25471C2F200010860D2
:10379000DAF8000040F29431C06AC2F2000100EB96
:1037A000800051F82000012888BF012440F6002045
:1037B000C2F200000068002818BF0124204601B0B2
:1037C000BDE8F08F2DE9F04F81B040F2C044C2F265
:1037D0000004206868B1FFF749FD206801382060C7
:1037E000206880B10024FFF765FD204601B0BDE8E8
:1037F000F08F4FF0500080F31188BFF36F8FBFF34D
:103800004F8F00BFFEE740F2B440C2F200000068F4
:1038100000285FD040F25C76C2F20006306840F6C5
:103820000028C2F2000898B340F2C84540F294392B
:1038300040F2843A4FF0010BC2F20005C2F20009D7
:10384000C2F2000AF068C76807F11800FFF7C6FC6B
:103850003C1D2046FFF7C2FCF86A29680BFA00F20B
:10386000114300EB8000296009EB80002146FFF73F
:10387000E5FCF86ADAF80010C96A884228BFC8F87F
:1038800000B030680028DDD1002F18BFFFF748FCDA
:1038900040F2BC44C2F2000425685DB1012600BFBD
:1038A000FFF7DEFE002818BFC8F80060013DF7D121
:1038B00000202060D8F8000070B14EF60450CEF21F
:1038C00000004FF080510160BFF34F8F0124BFF320
:1038D0006F8F88E7002486E7002484E70FB4084B45
:1038E00010B504A902AA039800F0DEF8044602A964
:1038F000002000F070FC204610BC5DF814FB0000B6
:10390000D741000802E008C8121F08C1002AFAD1F6
:1039100070477047002001E001C1121F002AFBD14F
:10392000704700002DE9FF5F82B00021DDE904301F
:10393000020DDDF840B0034318D044F61050A2F257
:10394000FF3242431514119801281FD0A5EB0B003C
:10395000401C5FEA000A4FF000064E4FDFF8389136
:10396000B046504615D5CAF1000413E01198012461
:103970004AA3012801D16FEA0B010298119AC0E90C
:103980000031C0E9024206B0BDE8F09FCBF1000073
:10399000DFE704460021404A491842EB0450CDE9D4
:1039A000001012E0E00707D032463B464046494649
:1039B000FCF715FD8046894632463B4610461946BF
:1039C000FCF70DFD06460F466410002CEAD1DDE938
:1039D0000401DDE90023BAF1000F06DAFCF7FFFC71
:1039E00042464B46FCF7FBFC05E0FCF76AFD42460D
:1039F0004B46FCF766FD04460E460022284BFCF7BA
:103A0000BDFE03D84FF0FF30014607E00022254BF2
:103A100020463146FCF73CFCFCF797FE102409E0F9
:103A2000002C0ADB0A220023FCF7D0FD039B303276
:103A30001A55641E50EA0102F2D1641C039AC4F1C3
:103A400011031444119A012A03D0012208430DD115
:103A50000AE0084304D000204FF0110B119072E7E8
:103A6000A3EB0B056D1E0DE05B4504DD4FF000027E
:103A700005F1010504E003DA4FF00002A5F10105AC
:103A8000002AECD002981199C0E90231C0E9004542
:103A900079E70000000014400000F03F3000000013
:103AA0000000F0430000E03F2DE9FF4F95B09B463A
:103AB0008946064600250FE2252877D100242746AF
:103AC000F84A0121059400E0044316F8013F203B29
:103AD00001FA03F01042F7D130782A2811D06FF0A4
:103AE0002F033078A0F13002092A16D8059A44F045
:103AF000020402EB820203EB42021044761C0590A2
:103B0000EFE759F8042B0592002A03DA504244F4F7
:103B10000054059044F00204761C30782E2816D10B
:103B200016F8010F44F004042A280DD06FF02F027C
:103B30003078A0F13003092B09D807EB870302EB9B
:103B40004303C718761CF3E759F8047B761C3078DA
:103B50006C280FD006DC4C2817D068280DD06A28B6
:103B600014D104E0742810D07A280FD10DE044F469
:103B700000140AE044F4801401E044F44014727824
:103B8000824202D104F58014761C761C30786628B7
:103B90000BD013DC582877D009DC002875D04528D5
:103BA000F6D04628F4D047281AD19DE118E06328C2
:103BB00035D0642879D0652812D195E1702873D06A
:103BC00008DC6728F1D069286FD06E280DD06F28E7
:103BD00006D1B5E073282CD0752875D0782874D01C
:103BE0005A46179990476D1C75E1C4F3025002289C
:103BF00009D003280DD0D9F8001004280DD00D608D
:103C000009F1040967E1D9F80010EA17C1E9005287
:103C1000F6E7D9F800100D80F2E70D70F0E719F81B
:103C2000041B8DF8001000208DF80100EA460120E9
:103C300003E059F804AB4FF0FF3061074FF000018B
:103C400002D40DE008F101018846B9420FDA80453F
:103C5000F8DB1AF808100029F4D108E008F1010196
:103C600088468142FADB1AF808100029F6D1059837
:103C70005B46A0EB080721463846179A00F094FAF5
:103C8000284400EB080507E04DE029E10DE01AF8B3
:103C9000010B5A4617999047B8F10108F7D25B46D5
:103CA00021463846179A13E142E00A220092C4F3F3
:103CB00002524FF0000A022A08D059F804CB032A16
:103CC0004FEAEC710AD00DE029E02AE009F1070182
:103CD00021F00702F2E802C1914609E00FFA8CFCDC
:103CE0004FEAEC71042A03D14FFA8CFC4FEAEC71D5
:103CF000002907DA0A460021DCF1000C61EB020121
:103D00002D2202E0220504D52B228DF80420012269
:103D100003E0E20701D02022F7E7904659E00A21AC
:103D200002E010220DE010214FF0000A00910BE09C
:103D300010224FF0000A44F004040827009203E028
:103D400008224FF0000A0092C4F30252022A05D062
:103D500059F804CB0021032A08D009E009F1070132
:103D600021F00702F2E802C1914605E01FFA8CFC3F
:103D7000042A01D10CF0FF0C4FF00008220728D5CF
:103D8000702806D0009B83F0100353EA0A0305D085
:103D90000EE040228DF80420012208E05CEA0102D6
:103DA00006D030228DF804208DF8050002229046BE
:103DB000009B83F0080353EA0A030AD15CEA01027C
:103DC00001D1620705D530228DF804204FF001089B
:103DD0007F1E582804D034A003900EA802900DE056
:103DE00036A0F9E753466046009AFCF7EFFB84469D
:103DF0000398825C0298401E029002705CEA010007
:103E0000F0D1029806A9081A00F1200A600702D52D
:103E100024F4803400E00127574502DDA7EB0A00B7
:103E200000E0002000EB0A01009005984144401A90
:103E30000590E00306D45B462146179A059800F0EA
:103E4000B3F90544002706E001A85A46C05D17995A
:103E500090476D1C7F1C4745F6DBE0030CD55B46A5
:103E60002146179A059800F09FF9054404E0302098
:103E70005A46179990476D1C0099481E00900029DA
:103E8000F5DC08E0029802995A460078491C029134
:103E9000179990476D1CBAF10001AAF1010AF1DCF3
:103EA00065E10000092801003031323334353637FE
:103EB0003839616263646566000000003031323376
:103EC0003435363738394142434445460000000016
:103ED00000F058F90544761C307800287FF4ECADEA
:103EE00019B02846BDE8F08F620700D4062709F113
:103EF000070222F0070CFCE80223E14603F0004829
:103F00005FEA080C02D00FF2702C0DE05FEA045C4F
:103F100002D50FF2682C07E05FEAC47C02D00FF2F2
:103F2000602C01E0AFF2700C4FF0FF3823F000433B
:103F3000CDF850C065280CD006DC452809D04628AD
:103F40001DD047283DD13DE0662818D067287ED196
:103F500038E00021112F01DB112000E0781CCDE9B1
:103F6000000106A90EA8FFF7DDFCDDE90F010E9A9E
:103F700003910021009207F1010A04914DE04FF0F6
:103F800000400097CDE9011006A90EA8FFF7CAFC72
:103F9000DDE90F0203920E9B11990022DDF80CA0BF
:103FA0000093049211B9791C00EB010AB7EB0A00E7
:103FB00004D4C0F1FF3007F1010A0490AAEB070016
:103FC000019044E0012F00DA01270021112F01DDCB
:103FD000112000E03846CDE9000106A90EA8FFF740
:103FE000A1FCDDE90F010E9A0391002104910092DA
:103FF000BA4621070CD40399514500DA8A46BAF132
:10400000010F05DD009AAAF10101515C302908D0A9
:10401000B84202DA10F1040F06DA0121CDE90110ED
:1040200015E0AAF10101E9E7002805DC0499014443
:104030000491AAEB000102E0411C514500DD8A46D3
:104040000499401A401C01904FF000400290200754
:1040500004D40198504501DBCDF8048000208DF890
:104060004F0002980DF14F07B0F1004F25D02B20E3
:104070000E9002984FF0020800280CDA404202909D
:104080002D200E9007E00A210298FCF789FA3031C2
:10409000029007F8011DB8F10001A8F10108F2DC57
:1040A00002980028EFD1791E0E980870307800F041
:1040B000200040F0450007F8020D12A8C01B00F1D7
:1040C00007081498007800B1012000EB0A0101985C
:1040D00001EBE07105984144401A401E0590E00351
:1040E00006D45B462146179A059800F05DF8054412
:1040F0001498007818B15A46179990476D1CE00340
:1041000024D55B462146179A059800F04DF80544E2
:104110001CE00498002807DBDDE90301884203DD89
:104120000098405C179901E0179930205A46904753
:10413000049805F10105401C04900198401E01906F
:1041400004D12E205A46179990476D1CBAF10001F0
:10415000AAF1010ADDDC05E017F8010B5A461799B0
:1041600090476D1CB8F10001A8F10108F4DC5B4632
:104170002146179A0598ABE62D0000002B000000A1
:10418000200000002DE9F041044600251E46174698
:10419000880404D405E039462020B0476D1C641E15
:1041A000F9D52846BDE8F0812DE9F0410446002507
:1041B0001E469046C80301D5302700E0202788041A
:1041C00004D505E041463846B0476D1C641EF9D55C
:1041D0002846BDE8F0810A68531C0B6010707047D8
:1041E00010B5002821D0114B0022001F196803E0F0
:1041F000814203D80A4649680029F9D152B11368AF
:10420000841A9C4204D1006818441060104602E0F1
:10421000506000E0186039B102680B1A934203D174
:104220000B681A4402604968416010BD000000201C
:10423000F0B50B30154D20F007010024144A0FE0B3
:1042400003688B420BD38B4205D95E1A431847682B
:10425000C3E9006700E04368136002C004E0021D88
:1042600010680028ECD12046002802D1286808B147
:104270000020F0BD064A07481060074A121A22F0D3
:104280000702C0E9002401202860D7E704000020CD
:10429000000000200C0A0020080C002000C00000D4
:1042A0000200000000000000030000000700000002
:1042B00000000000000000000102030406070809D6
:1042C00000000000010203040203040506070809B8
:1042D0000A0B0C0D0E0F101001020304050607084F
:1042E000090A0B0C0D0E0F108025000000000000C5
:1042F00000000000000000000C00000000000000B2
:10430000000000000000000028430008000000201A
:1043100088020000D00700089043000888020020AF
:10432000800D00001439000801152F152C0008D944
:10433000310008812C0008212C2C08A531000859D7
:104340002C0008D12B0E8108E12B0008012C00085D
:104350000044004005FF240400207132BC2C20CD15
:104360001F0008091F00080D20DA08051F0008E1DA
:104370001E00082DED2D0008E92D0008E12C000895
:104380000584127A00804201421015AAAAAAAA0046
:040000050800018965
:00000001FF
