:020000040800F2
:10000000500D00209D010008311A000869190008F0
:100010002D1A0008910200081124000800000000B9
:10002000000000000000000000000000011B0008AC
:100030009502000800000000611A0008251B000856
:10004000B7010008B7010008B7010008B7010008B0
:10005000B7010008B7010008B7010008B7010008A0
:10006000B7010008B7010008B7010008B701000890
:10007000B7010008B7010008B7010008B701000880
:10008000B7010008B7010008B7010008B701000870
:10009000B7010008B7010008B7010008B701000860
:1000A000B7010008111C0008ED1B0008B70100088B
:1000B000B7010008B7010008B7010008B701000840
:1000C000B7010008B7010008B7010008B701000830
:1000D000B701000899230008C5230008B7010008EC
:1000E000B7010008B7010008B7010008B701000810
:1000F000B7010008B7010008B7010008B701000800
:10010000000000000000000000000000B70100082F
:10011000B7010008B7010008B7010008B7010008DF
:10012000B7010008B7010008B7010008B7010008CF
:10013000B7010008B701000800000000000000003F
:10014000B7010008B7010008B7010008000000006F
:10015000000000000000000000000000000000009F
:100160000000000000000000B7010008B70100080F
:10017000B7010008000000000000000000000000BF
:1001800000000000B7010008DFF80CD000F050F8C4
:100190000048004789240008500D00200648804789
:1001A00006480047FEE7FEE7FEE7FEE7FEE7FEE75C
:1001B000FEE7FEE7FEE7FEE7D91B0008890100081D
:1001C00040EA01039B0703D009E008C9121F08C0D9
:1001D000042AFAD203E011F8013B00F8013B521E59
:1001E000F9D27047D2B201E000F8012B491EFBD2D0
:1001F00070470022F6E710B513460A460446194632
:10020000FFF7F0FF204610BD421E12F8013F002B01
:10021000FBD111F8013B02F8013B002BF9D17047EB
:10022000421C10F8011B0029FBD1801A7047000006
:10023000064C074D06E0E06840F0010394E8070033
:1002400098471034AC42F6D3FFF7A2FF40310008C4
:100250006031000830B58C1810F8012B12F00F0334
:1002600001D110F8013B120906D110F8012B03E06F
:1002700010F8015B01F8015B5B1EF9D101E001F8A8
:10028000013B521EFBD1A142E6D3002030BD00004D
:10029000FEE700007047000080B58AB041F214000C
:1002A000C4F2020001680DF1140E41F40031016046
:1002B000016801F4003105910599816841F400312C
:1002C0008160806800F400300590059843F2D40006
:1002D000C0F6000090E80E1000698EE80E1009903C
:1002E0004FF4C040009001200190002002900320B4
:1002F000039069464FF0904000F0CEF84FF09040E8
:100300004FF4C041002200F09DF905A94FF0904044
:1003100000F0C2F80AB080BDB0B54EF21004CEF2C3
:1003200000040025EFF3108072B625606560A560BB
:1003300000F0EEFB4FF6FF7004EB85010135082D50
:10034000C1F87001C1F87002F6D162B6B0BD00000C
:1003500040F20044C4F60004EFF3108072B600BF10
:100360002046082100F066F94FF47A7000F080F81A
:10037000F6E7000070B5FFF78FFF43F22010C0F6DC
:10038000000040F2000490E82E50D0E90660C2F26E
:100390000004256140F28425C4E90760C2F200052B
:1003A00026206160A260E360C4F814C0C4F818E0BD
:1003B0002C6000F0E7F926200221022200F0E6F985
:1003C000204601F0D3F8002818BFFFF7C1FFD5E998
:1003D000000101222944083101F030F970BD00000C
:1003E000014690F82100022813D10868D1E90FC313
:1003F000026822F00E020260026822F0010202602E
:10040000012000FA03F2CCF8042081F8210000203A
:1004100002E0042088630120002281F82020704738
:1004200080B590F8211002291BD10268D0F834E081
:10043000D0E90FC31168BEF1000F21F00E01116069
:10044000116821F0010111604FF0010101FA03F17F
:10045000CCF804104FF48071018406D0F0470020DE
:1004600080BD04218163012080BD002080BD00008B
:10047000B0B5044600F0ECF8054640F22C20C2F27C
:1004800000000078611C18BF044400BF00F0E0F8D1
:10049000401BA042FAD3B0BD2DE9F04F83B00D68E8
:1004A000002D00F0C38000F138424FEAB22241F241
:1004B00000070192C4F600070522002600244FF031
:1004C000010AB84208BF0422009209E00D68043412
:1004D00035FA0AF20AF1010A06F1020600F0A680D6
:1004E000AAF1010C012202FA0CFB15EA0B09EDD06E
:1004F000D1F8048008F00305A5F1010EBEF1010F4B
:1005000011D887680322CB68B24027EA0202B340C1
:100510001A4382604268C8F3001322EA0B0203FA0E
:100520000CF31A434260032D1CD0C26803238F686A
:10053000B3409A4307FA06F31A43022DC26011D161
:100540006FF0030202EA5C02024404F01C070F236E
:10055000D2F820E003FA07F50B692EEA0505BB4047
:100560002B431362026803234F68B3409A4307F09A
:100570000303B3401A4317F4403F0260A6D041F290
:100580001803C4F202031A684FF6084842F0010249
:100590001A601A68CFF6FF7802F001020292029AFE
:1005A0002CF0030240F2004CC4F2010C624452F8F9
:1005B000083004F00C070F25BD4023EA050E019B0F
:1005C000009D042B38BF1D4605FA07F747EA0E03C6
:1005D00042F80830DCF800204B6842EA0907DD03E6
:1005E00058BF22EA0907CCF80070DCF804209D030C
:1005F00042EA090758BF22EA0907CCF80470DCF880
:100600000820DD0242EA090740F20C4558BF22EA01
:100610000907CCF80870C4F201052A689B0242EA77
:10062000090758BF22EA09072F604FE703B0BDE86A
:10063000F08F0000426902EA0103914341EA03415D
:10064000816170471823002A08BF2823C1507047D2
:1006500040F2FC30C2F200000068704740F22C20EB
:1006600040F2FC31C2F20000C2F2000100780A68D8
:10067000104408607047000080B542F20000C4F2E8
:100680000200016841F010010160032000F08EF8C3
:100690000F2000F005F800F055F8002080BD0000A4
:1006A000B0B586B041F21801C4F202010A680446EE
:1006B00042F400620A60096801A801F40061019136
:1006C0000199694600F094FA00F0CCFA4DF6836186
:1006D000C4F21B31A0FB01014FF0FF3000EB914150
:1006E00040F2382042F60042C2F20000C4F2010299
:1006F00040F2E7330025C0E90021C0E9025305615B
:10070000856100F07DFC0546C0B940F23820C2F298
:10071000000000F0A9FC054680B9192000F032F86D
:100720000F2C0AD819202146002200F02FF840F2A1
:100730003020C2F20000046000E00125284606B027
:10074000B0BD000080B582B041F21800C4F20200D2
:100750000168002241F001010160016801F001011E
:1007600001910199416841F08051416040680F2139
:1007700000F08050009000986FF0010000F006F843
:1007800002B080BD80B501F045FE80BD70B5144655
:100790000D46064601F04EFE2946224601F04AF972
:1007A0000146304601F04EFE70BD000080B501F0FC
:1007B0005BFE80BD2DE9F04182B00446807841F2B5
:1007C0003006C007C4F2020656D056F8140C10F0DA
:1007D00080580BD156F8140C40F0805046F8140C99
:1007E00056F8140C00F080500190019847F2000771
:1007F000C4F200073868C00512D4386840F480702D
:100800003860FFF725FF05463868C00508D4FFF7B4
:100810001FFF401B6428F7D9032002B0BDE8F08118
:1008200056F8100C10F4407015D0616801F4407156
:10083000884210D056F8100C40F24042C4F24222D6
:10084000012320F4407113600023C007136046F8B1
:10085000101C40F0A28056F8100C616820F4407023
:100860000843B8F1000F46F8100C05D156F8140CE7
:1008700020F0805046F8140C2068C1071BD1810776
:1008800021D4410727D481062DD4810333D44106D6
:100890003BD4010741D4C10647D481054DD401069C
:1008A00055D4C1055DD4C10465D480046BD4002047
:1008B00002B0BDE8F0813168A26821F00301114364
:1008C00031608107DDD53168E26821F440311143A0
:1008D00031604107D7D53168226921F440211143A5
:1008E00031608106D1D53168E26921F010011143F0
:1008F00031608103CBD556F82C1CA26B21F480010A
:10090000114346F82C1C4106C3D53168226A21F0F8
:100910002001114331600107BDD53168626921F4BE
:10092000401111433160C106B7D53168A26921F485
:100930004001114331608105B1D556F82C1CE26AA3
:1009400021F40001114346F82C1C0106A9D556F8E4
:10095000041C626A21F4F871114346F8041CC105B5
:10096000A1D556F8041CA26A21F47851114346F827
:10097000041CC10499D53168226B21F480711143A4
:100980003160800493D53068616B20F400700843B7
:100990003060002002B0BDE8F081FFF759FE054647
:1009A00041F2883756F8100C80073FF554AFFFF737
:1009B0004FFE401BB8424FF00300F3D9EAE70000B6
:1009C0002DE9F04381B0002878D042F20008C4F24B
:1009D00002080446D8F800000D4600F007008842DF
:1009E0000CD2D8F8000020F007002843C8F8000017
:1009F000D8F8000000F00700A8425FD1206841F25B
:100A000004098107C4F2020907D5D9F80010A268C9
:100A100021F0F0011143C9F80010C00745D1D8F802
:100A2000000000F00700A8420CD9D8F8000020F020
:100A300007002843C8F80000D8F8000000F00700BD
:100A4000A8423BD12068410707D5D9F80010E268D9
:100A500021F4E0611143C9F80010000708D5D9F866
:100A60000000216920F4605040EAC100C9F800008C
:100A700000F00AF9D9F8001043F2E802C1F30311BB
:100A8000C0F60002515C40F2A41220FA01F140F2DB
:100A90003020C2F200000068C2F200021160FFF7CD
:100AA000FFFD002001B0BDE8F0836068022809D096
:100AB000012828D159F8041C890307D4012001B06A
:100AC000BDE8F08359F8041C8901F7D5D9F8001066
:100AD00021F003010843C9F80000FFF7B9FD0646FD
:100AE00041F28837D9F80000616800F00C00B0EBE3
:100AF000810F94D0FFF7ACFD801BB842F2D90320E0
:100B000001B0BDE8F08359F8041C8907D6D5DDE7AC
:100B100070B541F20005C4F20205286840F00100FA
:100B20002860FFF795FD04462868800706D4FFF784
:100B30008FFD001B0228F7D9032070BD2868102103
:100B400061F3C700286068684CF20C01CFF6FF0122
:100B500008406860FFF77CFD044641F2883600BF1C
:100B6000686810F00C0F06D0FFF772FD001BB04252
:100B7000F6D9032070BD40F23020C2F2000040F2EE
:100B8000A41141F200220068C2F20001C0F27A0210
:100B90000A60FFF785FD00281CBF012070BD286892
:100BA0004FF6FF71CFF6F66108402860286820F400
:100BB00080202860FFF74CFD044600BF28688001B4
:100BC00006D5FFF745FD001B0228F7D9032070BDAD
:100BD00000206860E8622863A968012241F41F01CF
:100BE000A96040F2E041C4F24221A8600A6070BDF1
:100BF0000F22026041F20402C4F20202136803F001
:100C000003034360136803F0F0038360136803F485
:100C1000E063C36012684FF4E06303EAD20202614A
:100C200042F20000C4F20200006800F00700086011
:100C30007047000040F2A410C2F200000068704744
:100C400080B5FFF7F7FF41F20401C4F20201096821
:100C500043F2F802C1F30221C0F60002515CC84021
:100C600080BD000080B5FFF7E5FF41F20401C4F24A
:100C70000201096843F2F802C1F3C221C0F6000282
:100C8000515CC84080BD000041F2040CC4F2020C6B
:100C9000DCF8003003F00C00082841F20020C0F21C
:100CA0007A0018BF704743F20011C3F38342C0F6C5
:100CB00000018A5CDCF82810DB0305D440F6001044
:100CC000C0F23D005043704743F2101301F00F0192
:100CD000C0F60003595CB0FBF1F0504370470000D0
:100CE0002DE9F04182B0002800F08F8004460078A2
:100CF00041F20006C007C4F202064BD0706800F053
:100D00000C00042806D13068800343D560680028B1
:100D100040D17AE0706800F00C00082802D17068B9
:100D2000C003F0D465682DB1B5F5A02F0AD0B5F594
:100D3000803F0BD0306820F480303060306820F481
:100D4000802006E0306840F480203060306840F455
:100D500080303060F06AA16820F00F000843F06234
:100D6000FFF776FC002D054611D000BF30688003E8
:100D700010D4FFF76DFC401B6428F7D908E100BFD1
:100D8000FFF766FC401B64284FF003003AD8306838
:100D90008003F5D42078800718D5706810F00C0F08
:100DA00007D0706800F00C0008286CD17068C00390
:100DB00069D43068800702D52069012825D13068C0
:100DC000616920F0F80040EAC10030602078000737
:100DD0001FD42078400732D4E56995B1706800F0DF
:100DE0000C00082840F08880012D0ED07068216A20
:100DF00000F480328A4208D1616A00F4701088429F
:100E000003D1002002B0BDE8F081012002B0BDE8AE
:100E1000F081A06900285BD00020C4F242200121AB
:100E2000C0F88014FFF714FC054600BF706A800705
:100E3000CFD4FFF70DFC401B0228F7D9A8E0F069DA
:100E400010F0805808D1F06940F08050F061F069EE
:100E500000F080500190019847F20007C4F20007AB
:100E60003868C00526D4386840F480703860FFF7D1
:100E7000EFFB05463868C0051CD4FFF7E9FB401BB3
:100E80006428F7D984E02069002840F20000C4F209
:100E9000422053D001210160FFF7DAFB054600BF75
:100EA000306880073FF58BAFFFF7D2FB401B02286D
:100EB000F6D96DE0E5681DB1052D51D0012D53D057
:100EC000306A20F001003062306A20F004004EE009
:100ED0000020C4F242200021C0F88014FFF7B8FBC4
:100EE000054600BF706A80077FF573AFFFF7B0FB60
:100EF000401B0228F6D94BE00027C4F2422700200D
:100F00003866FFF7A5FB022D05460BD1306880013E
:100F100056D5FFF79DFB401B02284FF00300F5D983
:100F200070E700BF306880017FF56BAFFFF790FB83
:100F3000401B02284FF00300F4D963E70021016051
:100F4000FFF786FB054600BF306880077FF53EAFA0
:100F5000FFF77EFB401B02284FF00300F4D951E756
:100F6000306A40F004003062306A40F001003062C4
:100F7000FFF76EFB002D054641F2883714D000BF05
:100F8000306A800713D4FFF763FB401BB842F7D9E0
:100F9000032002B0BDE8F081FFF75AFB401BB842C6
:100FA0004FF003003FF62EAF306A8007F4D4B8F15B
:100FB000000F7FF411AFF06920F08050F0610BE773
:100FC0007068D4E9082120F474100843104370605D
:100FD00001203866FFF73CFB044600BF3068800103
:100FE0003FF50FAFFFF734FB001B02284FF0030063
:100FF000F4D907E770470000704700007047000011
:10100000002804BF0120704710B5044690F83D0049
:1010100028B9002084F83C00204600F023F8022084
:1010200084F83D002068211D00F0FAFD012084F8BD
:10103000480084F83E0084F83F0084F8400084F8BB
:10104000410084F8420084F8430084F8440084F8A6
:10105000450084F8460084F8470084F83D000020ED
:1010600010BD00007047000090F83D1001291CBF22
:1010700001207047022180F83D10016842F6FF32DE
:10108000C868C4F20102914240F00100C8600FDC60
:10109000B1F1804F1ED040F20040C4F20000814206
:1010A00018D040F60000C4F20000814212D024E0C3
:1010B00042F60040C4F2010081420BD044F200002D
:1010C000C4F20100814205D043F20040C4F20100A5
:1010D000814212D188680722C0F201020240062A2A
:1010E0004FF000000ED0B2F5803F08BF704708688F
:1010F00040F00100086000207047086840F00100DF
:1011000008600020704700007047000010B50446DA
:1011100000680169890744BFC1685FEA817140D4F2
:1011200020680169490744BFC1685FEA417144D43E
:1011300020680169090744BFC1685FEA017149D4A9
:1011400020680169C90644BFC1685FEAC1614DD426
:1011500020680169C9071CBFC1685FEAC17152D12B
:1011600020680169090644BFC1685FEA016151D482
:1011700020680169C90544BFC1685FEA016150D4B4
:1011800020680169490644BFC1685FEA41614FD4E4
:1011900020680169890644BFC1685FEA81614ED455
:1011A00010BD6FF002010161012121778069800784
:1011B0004CD02046FFF7A8FF4EE06FF0040101611C
:1011C00002212177806910F4407F48D02046FFF744
:1011D0009BFF4AE06FF00801016104212177C0699B
:1011E000800745D02046FFF78FFF47E06FF01001E2
:1011F000016108212177C06910F4407F41D0204669
:10120000FFF782FF43E06FF001010161204600F02B
:1012100045F8A5E76FF0800101612046FFF7ECFE7D
:10122000A6E76FF4807101612046FFF7E3FEA7E7B0
:101230006FF040010161204600F03CF8A8E76FF034
:10124000200101612046FFF7D9FE10BD204600F0C5
:1012500021F8204600F020F80020207760E72046A3
:1012600000F018F8204600F017F8002020775FE71C
:10127000204600F00FF8204600F00EF800202077FE
:101280005EE7204600F006F8204600F005F8002052
:1012900020775DE7704700007047000080B5006868
:1012A00042F60041C4F20101884208BFFFF7D6F9B7
:1012B00080BD0000704700007047000070470000CC
:1012C00070470000816FC06F08437047B0B5044697
:1012D000006840F62F03C169026885680B40202B27
:1012E00002F0200E07D1BEF1000F04D0616E99B359
:1012F00020468847B0BD40F60F03194213D040F294
:101300002013C0F2004305F0010C134013EB0C0353
:1013100009D0CB0718BF12F4807340F0A2808B076E
:1013200000F1A980B2E0D4F860C00A40D3063AD5F3
:10133000BCF1010F37D110210162806840063ED414
:10134000B4F85800B4F85A10B4F85A20002A1CBF58
:10135000401A5FEA004101D1B0BD00BF216851E8E9
:10136000001F226821F4907142E80013002BF5D190
:10137000216851E8021F226821F0010142E80213AE
:10138000002BF5D12021E16700212166616600BFB5
:10139000216851E8001F226821F0100142E8001383
:1013A000002BF5D14EE0C90251D515F480014ED085
:1013B0004FF4801101622046FFF780FFB0BD206F1F
:1013C000016849688AB2002AC6D0B4F858309A42F7
:1013D000C2D2A4F85A10806920282ED0206850E884
:1013E000000F216820F4807041E80002002AF5D146
:1013F000206850E8020F216820F0010041E8020255
:10140000002AF5D1206850E8020F216820F0400042
:1014100041E80202002AF5D12020E0670020206682
:10142000206850E8000F216820F0100041E8000219
:10143000002AF5D1206FFEF7D3FFB4F85800B4F8B6
:101440005A10401A81B22046FFF736FFB0BD100691
:1014500000F18780500658BFB0BD204600F03CFD2B
:10146000B0BD01230362D4F8803043F00103C4F817
:1014700080308B070AD5BCF1000F07D0022303622E
:10148000D4F8803043F00403C4F880304B070AD509
:10149000BCF1000F07D004230362D4F8803043F07E
:1014A0000203C4F880300B070AD55CEA0E0307D0AC
:1014B00008230362D4F8803043F00803C4F8803076
:1014C0000B050BD512F0806308D04FF40063036264
:1014D000D4F8800040F02000C4F88000D4F88000E8
:1014E00000283FF439AF02EA0100800603D5616E9F
:1014F00009B1204688472068D4F88010806801F040
:10150000280100F04000401824D0204600F0BCFC28
:1015100020688068400619D5206850E8020F2168CD
:1015200020F0400041E80202002AF5D1206F68B1A6
:1015300041F67561C0F600014163FEF771FF0028B6
:101540003FF40AAF206F416B8847B0BD2046FFF7DC
:10155000B7FEB0BD2046FFF7B3FE0020C4F8800000
:10156000B0BDA16E00297FF4C3AEF5E610B5A0B101
:101570000446806F28B9002084F87400204600F0EB
:1015800025F82420A0672068016821F0010101608E
:10159000204600F059FD012801D1012010BD606AEC
:1015A00010B1204600F0BCFB2068416821F4904156
:1015B0004160816821F02A018160016841F00101E8
:1015C0000160204600F020FC10BD000080B586B010
:1015D000006843F60002C4F2010200219042CDE906
:1015E0000411CDE90211019101D006B080BD41F294
:1015F0001400C4F20200426842F480424260426831
:1016000002F480420092009A026842F400320260C2
:10161000006800F40030009000984FF4C060019022
:101620000220CDE90201032004900720059001A9C2
:101630004FF09040FEF730FF06B080BD80B5C36F1D
:10164000202B0BD100294FF0010318BF002A01D134
:10165000184680BD90F87430012B01D1022080BD66
:10166000012380F874300023036603685B681B0263
:101670000CD500BF036853E800CFD0F800E04CF071
:1016800080634EE8003CBCF1000FF3D100F0C8FDD0
:101690000023184680BD000070B50446006844F27F
:1016A0000041C4F20001884226D043F60001C4F292
:1016B0000101884218BF70BD40F2A815C2F20005B2
:1016C000688829180E79411C0028698008BFFF2E00
:1016D00006D10FA000F004F900F0A0F8FEF71CFE00
:1016E0002846314600F0EEF9688801222844011DA1
:1016F000204600F095FD70BD02A000F0F1F800F06A
:101700008DF870BD5553415254320D0A000000004F
:10171000646675206F6B0D0A000000002DE9F04330
:1017200081B00446806F20280BD10E4600294FF06F
:1017300001005AD01746002A57D094F874000128A7
:1017400003D1022001B0BDE8F083012084F87400C9
:101750004FF0000921201D46C4F88090A067FEF7D5
:1017600077FFA4F85070A4F85270A1680746B1F54D
:10177000805F07D1206900281CBF30464E46B04626
:10178000064601E04FF0000884F8749009E000BFBD
:1017900016F8010B21680885B4F852000138A4F846
:1017A0005200B4F8520088B12046802100223B4606
:1017B000009500F07FFD88B9002EE9D138F8020BC2
:1017C00021686FF35F2008850026E5E72046402169
:1017D00000223B46009500F06DFD18B1032001B0DA
:1017E000BDE8F0832020A067002001B0BDE8F083B1
:1017F0007047000010B540F26C30C2F2000004687F
:101800002068B0F804110430FEF7F3FC20680021D2
:10181000A0F8041110BD00000020704710B582B080
:1018200040F27030C2F20000FFF74CFD68B140F2A8
:101830006C34C2F20004206843F600030168C4F26D
:101840000103086802689A4201D002B010BDB1F8E5
:101850000421002AF9D004316423FFF75FFF58B157
:101860002068032100688DF8071000680DF107015A
:1018700001226423FFF752FF20684069804702B0CD
:1018800010BD0000B0B540F2CC25C2F200052878AA
:1018900040F26C34C2F2000408B12068B0BD00F020
:1018A000A1F840F28C10C2F20000206001202870E4
:1018B0002520FEF767FF252001210122FEF766FFA4
:1018C00040F2A810C2F20000418801220844011D24
:1018D00040F27030C2F20000FFF7B0FE2068B0BDE9
:1018E000B0B5044640F27030C2F20000FFF7EAFCE7
:1018F00098B140F26C35C2F20005286821460068B4
:101900000430FEF781FC2046FEF78AFC296809684E
:10191000B1F804211044A1F804010020B0BD00007A
:1019200070B5054640F27030C2F200000C46FFF779
:10193000C9FCB0B140F26C36C2F2000630682246F3
:101940000068B0F80411084404302946FEF738FC5A
:1019500030680068B0F804112144A0F80411002098
:1019600070BD012070BD0000FEE7000070B586B0BC
:10197000002541F214000595CDE90355CDE9015547
:10198000C4F20200016840F2004441F480010160A9
:101990000168C4F6000401F4800100910099016817
:1019A000002241F4003101600168082601F4003191
:1019B00000910099016841F48021016000680821CC
:1019C00000F48020009000982046FEF73BFE0120A6
:1019D000CDE9020501A9204601960495FEF75CFDBC
:1019E00006B070BD80B540F2703043F60001C2F21F
:1019F0000000C4F2010100234FF00C0C4FF4E1325F
:101A000080E80E00C0E90333C0E905C3C0E907332D
:101A10004362FFF7ABFD002818BFFEF799FC40F2C8
:101A20007030C2F20000FFF7D1FD80BDFEE700007C
:101A3000FEE7000000F0070080F00703042B28BF3A
:101A400004234FF0FF3C03380CFA03F338BF0020A7
:101A5000994381400CFA00F022EA000008437047E5
:101A6000EFF30980BFF36F8F154B1A681EF0100F4C
:101A700008BF20ED108A20E9F04F10602DE9090021
:101A80004FF0500080F31188BFF34F8FBFF36F8F7B
:101A900001F0CAF84FF0000080F31188BDE809009A
:101AA00019680868B0E8F04F1EF0100F08BFB0ECDE
:101AB000108A80F30988BFF36F8F704700BF00BFA3
:101AC000D002002010B5FE290FD10446408800281E
:101AD00008BF10BD05A0FFF703FFFFF79FFE618859
:101AE000201DFEF786FB0020608010BD636C6561E1
:101AF00072206C697374730D0A000000000000000E
:101B0000074B19680868B0E8F04F80F30988BFF305
:101B10006F8F4FF0000080F31188704700BF00BF47
:101B2000D002002080B54FF0500080F31188BFF341
:101B30006F8FBFF34F8F01F07FF930B14EF6045035
:101B4000CEF200004FF080510160002080F3118838
:101B500080BD000070B59EB014AC20462821FEF771
:101B600048FB002568463C211395CDE91155CDE988
:101B70000F55FEF73EFB0120149018904FF4E01033
:101B80004FF4803102261D902046CDE91515CDE990
:101B90001B61FFF7A5F8002818BFFEF7D9FB0F203F
:101BA000CDE90F064FF48060CDE912050FA80221A0
:101BB0001195FEF705FF002818BFFEF7C9FB0120AD
:101BC0000090002002906846FEF7F4FD002818BF40
:101BD000FEF7BEFB1EB070BD4EF68850CEF2000080
:101BE000016841F4700101607047000080B503A0F6
:101BF000FFF776FEFFF712FE80BD00BF54494D315E
:101C0000375F49525148616E646C6572200D0A005D
:101C100080B540F23820C2F20000FFF777FA80BDAD
:101C200080B540F2FF7C0268C4F2000C604512DD12
:101C300040F60003C4F20003984215D043F200437B
:101C4000C4F2010398420FD042F60043C4F20103EC
:101C5000984209D00CE0B0F1804F05D040F200432B
:101C6000C4F20003984203D14B6822F070021A4379
:101C700043F2FF33C4F20103984209DC604516DCED
:101C8000B0F1804F28D040F20043C4F2000321E0BD
:101C900044F2FF33C4F20103984211DC43F20043E3
:101CA000C4F20103984217D044F2000310E040F65A
:101CB0000003C4F2000398420ED042F6004307E04E
:101CC00044F60003C4F20103984205D044F20043F5
:101CD000C4F20103984203D1CB6822F440721A4344
:101CE0004B6922F0800E8A6843EA0E03D1F800C0E7
:101CF0000360C262A0F18042A2F596324FEAB2229E
:101D0000072AC0F828C007D8012303FA02F212F00C
:101D1000E50F1CBF096901630121416180BD00001D
:101D200080B5416ACA070CD18A0715D44A071ED468
:101D30000A0727D4CA0630D48A0639D44A0657D5AA
:101D400041E00268D0F828C0536823F4003343EA26
:101D50000C0353608A07E9D50268D0F82CC0536899
:101D600023F4803343EA0C0353604A07E0D502684A
:101D7000D0F830C0536823F4802343EA0C03536047
:101D80000A07D7D50268D0F834C0536823F400435B
:101D900043EA0C035360CA06CED50268D0F838C0B7
:101DA000936823F4805343EA0C0393608A06C5D5F5
:101DB0000268D0F83CC0936823F4005343EA0C0354
:101DC00093604A0614D50268D0F840C05368BCF549
:101DD000801F23F4801343EA0C03536008D1D2F828
:101DE00004C0D0F844E02CF4C00343EA0E0353606F
:101DF000090658BF80BD0168806C4A6822F4002241
:101E00001043486080BD0000B0B582B00446002099
:101E1000C4F88000FEF71CFC216805460968090724
:101E20000BD56FF07E4C20464FF4001100222B465C
:101E3000CDF800C000F03EFA78B92068006840078D
:101E40000ED56FF07E4C20464FF4800100222B46C9
:101E5000CDF800C000F02EFA10B1032002B0B0BDE2
:101E60002020A067E0670020206684F8740002B09C
:101E7000B0BD000080B5406A0021A0F85A10A0F85B
:101E80005210FFF71DFA80BD016851E8001F02687B
:101E900021F4907142E80013002BF5D1016851E85C
:101EA000021F026821F0010142E80213002BF5D164
:101EB000016E01290AD100BF016851E8001F0268C4
:101EC00021F0100142E80013002BF5D12021C16759
:101ED000002101664166704780B500BF016851E886
:101EE000001F026821F0400142E80013002BF5D1E9
:101EF0002021816700218166FFF77AFC80BD000008
:101F000080B5B0F85C100268C36F222B41D1928C6F
:101F1000436D114023F8021B4365B0F85A10013994
:101F2000A0F85A10B0F85A10002918BF80BD00BFA1
:101F3000016851E8001F026821F4907142E8001323
:101F4000002BF5D1016851E8021F026821F0010160
:101F500042E80213002BF5D12021C1670021416620
:101F6000026E012A1AD10166016851E8001F026859
:101F700021F0100142E80013002BF5D10168CA6975
:101F8000D20644BF10220A62B0F85810FFF794F945
:101F900080BD906940F00800906180BDFFF77CFB38
:101FA00080BD000080B5B0F85C100268C36F222BC2
:101FB00041D1928C436D11401970416D01314165E1
:101FC000B0F85A100139A0F85A10B0F85A10002988
:101FD00018BF80BD016851E8001F026821F49071AC
:101FE00042E80013002BF5D1016851E8021F026896
:101FF00021F0010142E80213002BF5D12021C16735
:1020000000214166026E012A1AD10166016851E879
:10201000001F026821F0100142E80013002BF5D1E7
:102020000168CA69D20644BF10220A62B0F858108B
:10203000FFF742F980BD906940F00800906180BDD3
:10204000FFF72AFB80BD0000B0B504460268806837
:10205000D4E9033165690143D4F81CC029431568EC
:1020600049F20C6041EA0C0125EA000008431060C7
:10207000506820F4405018435060A069216A93686A
:10208000084323F430610843906044F6FF30C4F203
:10209000000082424FF0100118DD44F60040C4F207
:1020A0000000824225D045F20000C4F200008242C6
:1020B00026D043F60000C4F20100824232D141F240
:1020C0003000C4F20200016851A227E044F200404F
:1020D000C4F2000082421AD044F60000C4F20000AC
:1020E00082421FD141F23000C4F202000068810C2C
:1020F00013E041F23000C4F202000068010D0CE070
:1021000041F23000C4F202000068810D05E041F2A6
:102110003000C4F202000068010C39A201F0030093
:1021200052F8201041F20020BCF5004FC0F27A00B6
:102130000ED1082920D80025DFE801F00519251E59
:10214000221E1E1E38000025FEF77AFDE0B94BE086
:10215000082936D80025DFE801F0052F3B34383454
:1021600034344C000025FEF76BFD90BB3CE00025AD
:10217000FEF778FD40B937E00020012520B933E0B3
:102180000025FEF781FD78B361684A0802EB400044
:10219000B0FBF1F14FF6F070084005D0C1F34201F9
:1021A00022680843D0601FE001251DE04FF4004085
:1021B00000250028E8D117E00025FEF753FD40B9BF
:1021C00012E00020012520B90EE00025FEF75CFD9D
:1021D00050B1616800EB5100B0FBF1F080B2102803
:1021E00026BF2168C8600125002128466166A166D6
:1021F000B0BD4FF4004000250028EAD1F4E700BF4D
:1022000000000000040000000800000002000000C0
:1022100001000000040000000800000002000000AF
:102220004165A0F85820A0F85A2081680022426633
:1022300039B1B1F5805F08D1016941B940F2FF11B0
:1022400006E0016919B17F2102E0002100E0FF21D1
:10225000A0F85C100021C0F880102221C16700BFE7
:10226000016851E8021F026841F0010142E80213CF
:10227000002BF5D18168B1F5805F01D1016999B179
:1022800041F6A571C0F600014166002180F8741086
:10229000016851E8001F026841F4907142E80013A0
:1022A000002BF5D10020704741F60171C0F6000106
:1022B000EAE700002DE9F04381B004460068C069F8
:1022C0000840401AB0FA80F04009904260D1DDF831
:1022D000208015460E46994608F1010709E000BF27
:1022E0002068C0693040801BB0FA80F04009A842E5
:1022F0004ED1002FF4D0FEF7ABF9B8F1000F29D082
:10230000A0EB0900404525D820680168490744BF73
:10231000C1695FEA0151E3D54FF40061016200BF7A
:10232000206850E8000F216820F4D07041E80002D6
:10233000002AF5D1206850E8020F216820F0010042
:1023400041E80202002AF5D12020A067E067C4F826
:10235000800016E0206850E8000F216820F4D0705B
:1023600041E80002002AF5D1206850E8020F2168F8
:1023700020F0010041E80202002AF5D12020A067E8
:10238000E067002084F87400032001B0BDE8F0830A
:10239000002001B0BDE8F08380B540F27030C2F299
:1023A0000000FEF793FF40F2A810C2F2000041883F
:1023B0000A18002918BF501E0430FFF791FAFFF7E2
:1023C0002DFA80BD10B50DA0FFF78AFAFFF726FAA7
:1023D00040F28424C2F200042068FEF777FFD4E9BB
:1023E000000101220131616021440831FFF726F923
:1023F00006A0FFF775FAFFF711FA10BD5278437087
:102400006C7443616C6C6261636B0A0072780A00E1
:10241000FEE70000002848BF704700F01F010122BE
:1024200002FA01F14EF200124009CEF2000242F827
:10243000201070474EF60C50CEF200000068C0F33A
:10244000022070474EF6145300F00F02CEF2000344
:1024500009011A4400F16043B0F1FF3FC8BF03F522
:1024600064421170704700004EF60C51CEF200012C
:102470000A684FF6FF031A4060F30A2242F08060B8
:1024800040F0FD700860704780B5FEF7F5F8FFF783
:1024900061FBFFF76BFAFFF7F5F941F65830FDF7EE
:1024A000E7FF00F009FA00F077FB00F003F80020E6
:1024B00080BD000080B500F06FFB002080BD0000F3
:1024C000F0B581B00D4640F6481140F2D026C2F278
:1024D0000001C2F200060F6831680446081D00F0D2
:1024E0001DFA10B1601C0FD019E0306840F21442A0
:1024F000C06AC2F200020121136801FA00F023EA67
:1025000000001060601C0AD14DB13068011D40F61A
:10251000CC00C2F2000000F04FFA01B0F0BD30680C
:10252000E41944600AD340F2DC20C2F200000068E3
:102530003168043100F022FA01B0F0BD40F2D4203D
:10254000C2F2000000683168043100F017FA40F26E
:10255000A060C2F2000001688C4238BF046001B084
:10256000F0BD000070B5044600F03EFA40F20040B5
:10257000C2F20000016840F2D02501310160C2F2D0
:102580000005296840F2C066C2F2000641B1306819
:1025900060B92868E16AC06A884298BF2C6005E08B
:1025A0002C600068012801D100F0CAF840F2104008
:1025B000C2F20000016840F2144201310160E06A99
:1025C000C2F200020121136881401943116040F2F8
:1025D000E02100EB8000C2F2000101EB8000211D30
:1025E00000F0EAF900F024FA306880B12868E16A66
:1025F000C06A884228BF70BD4EF60450CEF200007B
:102600004FF080510160BFF34F8FBFF36F8F70BDEC
:10261000F0B581B040F20445C2F200052868E0B18F
:1026200040F6341640F20047C2F20006C2F200073C
:1026300000F0DAF9F068C468201D00F06FF938681E
:102640000138386028680138286000F0F1F9204628
:1026500000F006F828680028EAD101B0F0BD0000BB
:1026600010B5044690F85100022808BF10BD01289B
:1026700003D030B9206B00F0F3F9204600F0F0F9F8
:1026800010BD4FF0500080F31188BFF36F8FBFF380
:102690004F8F00BFFEE7000040F2E0244EF60455E5
:1026A000C2F20004CEF200054FF08056FFF7B0FFF3
:1026B00020680228FAD32E60BFF34F8FBFF36F8FCD
:1026C000F4E700002DE9F047DDE909878246386B21
:1026D000089C00EB82000438994620F00706002091
:1026E0000A5C3B1883F834200A5C1AB10F2800F109
:1026F0000100F5D30025381D87F84350062C28BF6C
:102700000624FC62C7E9114500F034F907F118000E
:1027100000F030F984F00700B861304651464A466F
:102720003F617F62FD6487F8505000F0B1F8B8F166
:10273000000F386018BFC8F80070BDE8F0870000CF
:10274000B0B540F2E0250024C2F20005281900F0DF
:1027500005F914348C2CF9D140F21C44C2F2000467
:10276000204600F0FBF840F23045C2F20005284652
:1027700000F0F4F840F2A860C2F2000000F0EEF8B9
:1027800040F63410C2F2000000F0E8F840F6CC0049
:10279000C2F2000000F0E2F840F2D420C2F20000E1
:1027A000046040F2DC20C2F200000560B0BD000011
:1027B00080B540F6C402C2F2000200BF11461268A2
:1027C0008242FBD3D1F804C001EB0C03834203D156
:1027D0004068604448600846D0F804C000EB0C0331
:1027E000934201D013460BE040F2D823C2F200031B
:1027F0001B689A4204D0D2E9003E0EEB0C02426004
:102800008142036018BF086080BD0000084800686E
:10281000006880F308884FF0000080F3148862B6E7
:1028200061B6BFF34F8FBFF36F8F00DF00BF00BFF4
:1028300008ED00E040F2D420C2F20000016809680F
:1028400021B10068C068C068406801E04FF0FF3007
:1028500040F2A061C2F200010860704781B0002020
:10286000009040F23420C2F2000000684FF05001A6
:1028700081F31188BFF36F8FBFF34F8F013001D009
:10288000FEE700BF00980028FCD001B070470000B0
:10289000034642F65D00C0F600004FF0807C21F058
:1028A000010103E903106FF0020043F8240CA3F1C7
:1028B000440043F8202C704780B584B010A0FFF787
:1028C0000FF8FEF7ABFF40F2C460C2F2000008212F
:1028D00040F6E00CCDE9001042F61130C2F2000CD7
:1028E000C0F600000BA180220023CDF808C000F044
:1028F00069FA40F2BC61C2F20001086004B080BD18
:10290000716D63353838336C5F68616E646C650A6D
:1029100000000000716D633538383300D0E90132B2
:1029200001699A60D1F804C082688445536008BF89
:102930004A60002202610868013808600868704730
:1029400040F24C63C2F20003036040F24840C2F21E
:102950000000086080201060704700004FF0FF31D9
:10296000024642F8081F00214260C0E903220160CC
:1029700070470000002101617047000080B5D1F868
:1029800000C01CF1010207D000F108039E465B68FD
:102990001A686245FAD901E0D0F810E0DEF80420A8
:1029A00008614A609160C1F808E0CEF8041001683F
:1029B0000131016080BD0000D0F800C043680861AB
:1029C0009A684B608A609A68996051600CF10101C5
:1029D00001607047DFF80C00016841F4700101608C
:1029E000704700BF88ED00E04FF0500080F3118881
:1029F000BFF36F8FBFF34F8F40F23420C2F200005D
:102A000001684A1C026001B170474EF60450CEF2D4
:102A100000000068000608BF70474FF0500080F3C8
:102A20001188BFF36F8FBFF34F8F00BFFEE7000029
:102A300040F23420C2F20000016839B1013901606E
:102A400018BF7047002080F3118870474FF0500086
:102A500080F31188BFF36F8FBFF34F8FFEE7000045
:102A6000B0B5002808BFB0BD044640F21840C2F21D
:102A70000000007854F8041C002818BF4FF00040F4
:102A800008420CD0A4F108052A6892B14FF050001A
:102A900080F31188BFF36F8FBFF34F8FFEE74FF0C6
:102AA000500080F31188BFF36F8FBFF34F8F00BFCB
:102AB000FEE721EA000044F8040C00F0ADF840F213
:102AC0004441C2F2000154F8040C0A681044086042
:102AD0002846FFF76DFE00F061FAB0BD4EF210001F
:102AE000CEF2000000210160816040F2A411C2F228
:102AF0000001096844F6D352C1F26202A1FB02123E
:102B00004FF0FF3101EB92114160072101607047E6
:102B1000FDF730FC40F28425C2F2000506A400BF98
:102B2000286821460A224FF47A73FEF7F7FD4FF426
:102B30007A7000F007F8F3E7765461736B636F64A3
:102B40006500000010B5D8B1044640F20C40C2F256
:102B50000000006848B14FF0500080F31188BFF3C7
:102B60006F8FBFF34F8F00BFFEE700F055F8204690
:102B70000021FFF7A5FC00F011FA002818BF10BDD6
:102B80004EF60450CEF200004FF080510160BFF3CA
:102B90004F8FBFF36F8F10BD10B586B0002405A80E
:102BA00004A903AACDE90444FFF7CAFEDDE9032026
:102BB00005990023CDE9010142F29960C0F60000B9
:102BC00013A1009400F0FEF840F24861C2F2000147
:102BD0000860D8B14FF0500080F31188BFF36F8FB9
:102BE000BFF34F8F40F2A060C2F200004FF0FF3100
:102BF000016040F2C060C2F200000121016040F6B5
:102C00004810C2F20000046000F052F806B010BD97
:102C100049444C450000000040F20C40C2F2000064
:102C2000016801310160704740F20C40C2F20000BF
:102C3000006830B140F64C10C2F200000121016082
:102C4000704740F64C10C2F200000021016040F2D3
:102C50001440C2F200000068B0FA80F0C0B2C0F1C7
:102C60001F0040F2E02100EB8000C2F2000151F8A9
:102C7000202092B101EB800050F8041F4968021D2A
:102C80009142016001D149680160006840F2D021A1
:102C9000C068C2F20001086070474FF0500080F336
:102CA0001188BFF36F8FBFF34F8F00BFFEE70000A7
:102CB00080B582B04EF20040CEF200004CF270219E
:102CC000C4F20F11D0F800294B1C9A4209D14FF0E1
:102CD000500080F31188BFF36F8FBFF34F8F00BF99
:102CE000FEE7D0F800298A4209D14FF0500080F366
:102CF0001188BFF36F8FBFF34F8F00BFFEE70178DE
:102D000040F2F4320191FF2101700178C2F2000219
:102D10008DF803109DF8031001F05001117040F27E
:102D2000F831C2F2000107220A609DF90320B2F1D6
:102D3000FF3F0CDC0A6800BF9DF80330013A5B00DE
:102D40008DF803309DF90330002BF5D40A600A6832
:102D5000032A2DD14FF4E06303EA02220A600199AD
:102D60000170D0F8201941F47001C0F82019D0F892
:102D7000201941F07041C0F82019FFF7AFFE40F272
:102D80003420C2F2000000210160FFF723FE4EF65E
:102D90003470CEF20000016841F040410160FFF75D
:102DA00035FDFFF741FFFFF759FD002002B080BD60
:102DB0004FF0500080F31188BFF36F8FBFF34F8F38
:102DC000FEE7000070B586B00B9CBCB10C9EF6B15E
:102DD00054250495049D542D23D10A9D3463022467
:102DE00086F8514005ACCDE900540296FFF76AFC25
:102DF0003046FFF7B7FB059806B070BD4FF05000A6
:102E000080F31188BFF36F8FBFF34F8FFEE74FF052
:102E1000500080F31188BFF36F8FBFF34F8F00BF57
:102E2000FEE74FF0500080F31188BFF36F8FBFF3C0
:102E30004F8F00BFFEE700002DE9F04F81B040F258
:102E40000C40C2F20000006840B140F20840C2F2FB
:102E50000000016800240131016093E040F6481051
:102E6000C2F2000001684E1C066021D340F2D4205B
:102E7000C2F200000168096849B14FF0500080F3C8
:102E80001188BFF36F8FBFF34F8F00BFFEE740F293
:102E9000DC22C2F2000201681368036040F2A46001
:102EA0001160C2F20000016801310160FFF7C2FC4D
:102EB00040F2A061C2F20001086840F2D02A8642C6
:102EC000C2F2000A01D200244EE040F2D42BC2F23A
:102ED000000BDBF8000000240068D8B340F214496E
:102EE0000127C2F200091FE0D8F82C00D9F8001021
:102EF00007FA00F21143C9F8001040F2E02100EB9C
:102F00008000C2F2000101EB80002946FFF754FD6A
:102F1000D8F82C00DAF80010C96ADBF800208842E3
:102F2000106828BF3C46C0B1DBF80000C068D0F88C
:102F30000C80454655F8040F864210D32846FFF70B
:102F4000EDFCD8F828000028CED008F11800FFF7D3
:102F5000E5FCC9E74FF0FF3005E04FF0FF3040F2ED
:102F6000A061C2F200010860DAF8000040F2E0213E
:102F7000C06AC2F2000100EB800051F82000012875
:102F800088BF012440F64C10C2F2000000680028FF
:102F900018BF0124204601B0BDE8F08F2DE9F04FA5
:102FA00081B040F20C44C2F20004206868B1FFF71F
:102FB0001BFD206801382060206880B10024FFF7E5
:102FC00037FD204601B0BDE8F08F4FF0500080F390
:102FD0001188BFF36F8FBFF34F8F00BFFEE740F242
:102FE0000040C2F20000006800285FD040F2A866EE
:102FF000C2F20006306840F64C18C2F2000898B3DE
:1030000040F2144540F2E02940F2D02A4FF0010B83
:10301000C2F20005C2F20009C2F2000AF068C768F5
:1030200007F11800FFF77AFC3C1D2046FFF776FCFD
:10303000F86A29680BFA00F2114300EB800029605E
:1030400009EB80002146FFF7B7FCF86ADAF80010B8
:10305000C96A884228BFC8F800B030680028DDD1AE
:10306000002F18BFFFF7E6FB40F20844C2F200044D
:1030700025685DB1012600BFFFF7DEFE002818BFFE
:10308000C8F80060013DF7D100202060D8F80000AA
:1030900070B14EF60450CEF200004FF08051016046
:1030A000BFF34F8F0124BFF36F8F88E7002486E7BB
:1030B000002484E702E008C8121F08C1002AFAD1E0
:1030C00070477047002001E001C1121F002AFBD1A8
:1030D0007047000000C00000020000000000000077
:1030E00003000000070000000000000000000000D6
:1030F000010203040607080900000000010203049E
:1031000002030405060708090A0B0C0D0E0F101028
:103110000102030405060708090A0B0C0D0E0F1027
:1031200080250000000000000000000000000000FA
:103130000C00000000000000000000000000000083
:10314000603100080000002038020000540200082E
:103150009831000838020020180B0000C430000825
:1031600005810044004005FF700300207132842C6B
:1031700020E11800081D18000821190F84081918EB
:103180000008F517000800127A008042014210156D
:08319000AAAAAAAA000000008F
:040000050800018965
:00000001FF
