:020000040800F2
:10000000C00D00209D010008BD2100086D200008E2
:100010007D210008F1070008712D00080000000094
:100020000000000000000000000000009122000815
:10003000C109000800000000F1210008C9230008E0
:10004000B7010008B7010008B7010008B7010008B0
:10005000B7010008B7010008B7010008B7010008A0
:10006000B7010008B7010008B7010008B701000890
:10007000B7010008B7010008B7010008B701000880
:10008000B7010008B7010008B7010008B701000870
:10009000B7010008B7010008B7010008B701000860
:1000A000B7010008B524000891240008B701000832
:1000B000B7010008B7010008B7010008B701000840
:1000C000B7010008B7010008B7010008B701000830
:1000D000B7010008C12C0008ED2C0008012D000814
:1000E000B7010008B7010008B7010008B701000810
:1000F000B7010008B7010008B7010008B701000800
:10010000000000000000000000000000B70100082F
:10011000B7010008B7010008B7010008B7010008DF
:10012000B7010008B7010008B7010008B7010008CF
:10013000B7010008B701000800000000000000003F
:10014000B7010008B7010008B7010008000000006F
:10015000000000000000000000000000000000009F
:100160000000000000000000B7010008B70100080F
:10017000B7010008000000000000000000000000BF
:1001800000000000B7010008DFF80CD000F000FB11
:1001900000480047AD2E0008C00D002006488047EB
:1001A00006480047FEE7FEE7FEE7FEE7FEE7FEE75C
:1001B000FEE7FEE7FEE7FEE77D2400088901000870
:1001C00040EA01039B0703D009E008C9121F08C0D9
:1001D000042AFAD203E011F8013B00F8013B521E59
:1001E000F9D27047D2B201E000F8012B491EFBD2D0
:1001F00070470022F6E710B513460A460446194632
:10020000FFF7F0FF204610BD421E12F8013F002B01
:10021000FBD111F8013B02F8013B002BF9D17047EB
:1002200010B5044604E00B7800F8013B03B1491C0B
:10023000521EF8D2204610BD421C10F8011B0029A6
:10024000FBD1801A7047034611F8012B00F8012BEF
:10025000002AF9D11846704710B54843044604F007
:10026000CFF8002805D00021002C02D0641E0155D3
:10027000FAE710BD2DE9FE4F804681EA0300C00F6A
:100280000C46009021F0004123F00045B8EB02003D
:10029000A94105D24046214690461C460B460246DF
:1002A00023F00040104347D0270DC7F30A00C3F3E3
:1002B0000A510290401A019040286BDAC3F31300F0
:1002C00040F4801B0098924620B10023D2EB030A31
:1002D00063EB0B0B01985946C0F14002504600F009
:1002E00098F906460D4650465946019A00F0B0F975
:1002F00010EB08006141002487EA115284EAE77399
:100300001A4340D0009A62B3019A012A4FEA075279
:1003100015DC001B61EB02014FF0004202EA0752BC
:10032000CDE90042001C41F5801132462B4600F019
:10033000B0F903B0BDE8F08F40462146F9E7001B55
:1003400061EB0201001C41F5801300185B4120188D
:10035000A2F5001747EB030140EAD570B6196D41CD
:1003600011E06D084FEA360645EAC0754FEA0752BC
:10037000001B61EB0201001C41F5801149084FEAA6
:1003800030000019514132462B4603B0BDE8F04F12
:1003900000F070B90098012240000023D0EB020267
:1003A00063EBE073009821464FEAE074B8EB00007D
:1003B00061EB0401E9E783F000435BE781F0004172
:1003C00058E72DE9FE4F81EA030404F0004421F0D0
:1003D000004100944FF0000B23F0004350EA010469
:1003E0005ED052EA03045BD0C3F30A54C1F30A554A
:1003F0002C44A4F2F3340194A0FB0254C1F3130182
:1004000041F48011C3F3130343F4801301FB02444E
:1004100000FB034E840A970A44EA815447EA835753
:10042000A4FB076802958D0A05FB07854FEA932C0C
:1004300004FB0C542705029D4FEA065847EA16377D
:10044000B5EB08056EEB070C870E920E47EA811795
:1004500042EA8312A7FB0201B6EB0B0164EB000436
:100460002B0D43EA0C335E1844EB1C50DA46514620
:10047000E7FB0201C5F313044FEA0B3343EA1453BD
:100480004FEA0432019C43EA0603A4F10C040294EF
:10049000009CCDE900B400F0FCF803B0BDE8F08F9B
:1004A00000200146F9E72DE9F04D81EA030404F04C
:1004B000004B21F0004514464FF0000A23F00041A4
:1004C00050EA050220D054EA01021DD0C5F30A57B4
:1004D0000246C5F31303C1F31300C1F30A5640F4F7
:1004E000801543F48013A7EB0608101BD64608F2CC
:1004F000FD3873EB050002D308F1010801E0921802
:100500005B41B8F1000F03DA00200146BDE8F08D31
:1005100000204FF48011064684460EE0171B73EB53
:10052000050705D3121B63EB050306434CEA010CD8
:1005300049084FEA300092185B4150EA0107EDD1BB
:1005400052EA030012D082EA040083EA050108435C
:1005500005D0101BAB4106D20122002306E0002289
:100560004FF0004302E06FF0010253101AEB060057
:100570004CEB085110EB0A0041EB0B01BDE8F04DCC
:1005800000F078B830B50B46014600202022012447
:1005900009E021FA02F59D4205D303FA02F5491B51
:1005A00004FA02F52844151EA2F10102F1DC30BD67
:1005B0002DE9F05F0546002092469B468846064698
:1005C000814640241BE0284641464746224600F02B
:1005D0002FF853465A46C01A914110D31146184677
:1005E000224600F016F82D1A67EB01084F46224606
:1005F0000120002100F00DF817EB00094E41201EEC
:10060000A4F10104DFDC484631462A464346BDE8F2
:10061000F09F202A04DB203A00FA02F10020704704
:100620009140C2F1200320FA03F319439040704730
:10063000202A04DB203A21FA02F00021704721FA37
:1006400002F3D040C2F1200291400843194670479E
:10065000202A06DBCB17203A41FA02F043EAE07386
:1006600006E041FA02F3D040C2F120029140084373
:100670001946704710B5141E73F1000408DA401CC7
:1006800041F1000192185B411A4301D120F00100B1
:1006900010BD2DE9F04D92469B4611B1B1FA81F2A1
:1006A00002E0B0FA80F220329046FFF7B2FF044633
:1006B0000F4640EA0A0041EA0B0153465A460843F6
:1006C00013D0114653EA010019D0C8F14002504638
:1006D000FFF7AEFF05460E46504659464246FFF725
:1006E00098FF084305D0012004E020463946BDE8C4
:1006F000F08D0020054346EAE0762C4337430A9804
:100700006305E40AA0EB08000022FD0A44EA47540E
:100710000A3002D500200146E9E7010510196941B8
:10072000DDE9084500196941BDE8F04DA2E7C1F3D4
:100730000A52C1F3130140F2FF3341F480119A428F
:1007400002DA00200146704740F233439A42A2F297
:10075000334202DC5242FFF76BBFFFF75ABF000083
:1007600030B5041E71F1000404DB4FF00044404238
:1007700064EB0101141E73F1000405DB1C464FF00D
:100780000043524263EB0403994208BF904230BDDC
:10079000064C074D06E0E06840F0010394E80700CE
:1007A00098471034AC42F6D3FFF7F2FCB844000887
:1007B000D844000830B58C1810F8012B12F00F0344
:1007C00001D110F8013B120906D110F8012B03E00A
:1007D00010F8015B01F8015B5B1EF9D101E001F843
:1007E000013B521EFBD1A142E6D3002030BD0000E8
:1007F000FEE700002DE9F04F95B085780446437878
:10080000C07840F2A426EA08C2F2000660F34A1259
:10081000217972801492E0786279890041EA90101F
:1008200002F0010140EA8120B08013906079A17943
:10083000400861F3CA10F0801290A079E1794FEA84
:10084000101B61F30A1BA6F808B0217AE079627ADE
:10085000490041EAD01002F0030140EA41207081D2
:100860001190607AA17A4FEA900961F38A19A6F88B
:100870000C90E07AA17AC00040EA5110F08110900B
:10088000277B607B60F30A273782607BA27B4FEA7D
:10089000D00862F34A18A6F81280E07BA27B217C84
:1008A000800040EA921001F0010140EA812AA6F896
:1008B00014A0207C617C4FEA500C61F3CA1CA6F89E
:1008C00016C0617CA27C090962F30A113183E27CC3
:1008D00018465300A27C94F814E043EAD2120EF0BA
:1008E000030365F30A2042EA43257583237D627D75
:1008F0009B0862F38A13B383A27D94F815E0D200BB
:1009000042EA5E1E30800246308CCDE90A150E9018
:10091000139840F2243500901298CDE90C3ECDE9B1
:10092000010B1198C2F20005CDE903091098149B40
:10093000CDE905070EA12846A6F81EE0CDE908ACD2
:10094000CDF81C8003F0B2F8284601F04BFB01F013
:10095000E7FA0020207660612061E060A0606060BE
:100960002060C6E90000C6E9020015B0BDE8F08FBE
:100970002564202564202564202564202564202505
:1009800064202564202564202564202564202564B6
:100990002025642025642025642025642025640A00
:1009A0000000000010B50446800003F029FD40F26D
:1009B0000801C2F20001086008468C6010BD00000A
:1009C00070470000B0B54EF21004CEF200040025CE
:1009D000EFF3108072B625606560A56000F0B8FB8B
:1009E0004FF6FF7004EB85010135082DC1F8700149
:1009F000C1F87002F6D162B6B0BD000040F200440A
:100A0000C4F60004EFF3108072B600BF2046082140
:100A100000F030F94FF47A7000F04AF8F6E7000081
:100A2000014690F82100022813D10868D1E90FC3CC
:100A3000026822F00E020260026822F001020260E7
:100A4000012000FA03F2CCF8042081F821000020F4
:100A500002E0042088630120002281F820207047F2
:100A600080B590F8211002291BD10268D0F834E03B
:100A7000D0E90FC31168BEF1000F21F00E01116023
:100A8000116821F0010111604FF0010101FA03F139
:100A9000CCF804104FF48071018406D0F047002098
:100AA00080BD04218163012080BD002080BD000045
:100AB000B0B5044600F0ECF8054640F2F810C2F27A
:100AC00000000078611C18BF044400BF00F0E0F88B
:100AD000401BA042FAD3B0BD2DE9F04F83B00D68A2
:100AE000002D00F0C38000F138424FEAB22241F2FB
:100AF00000070192C4F600070522002600244FF0EB
:100B0000010AB84208BF0422009209E00D680434CB
:100B100035FA0AF20AF1010A06F1020600F0A6808F
:100B2000AAF1010C012202FA0CFB15EA0B09EDD027
:100B3000D1F8048008F00305A5F1010EBEF1010F04
:100B400011D887680322CB68B24027EA0202B3407B
:100B50001A4382604268C8F3001322EA0B0203FAC8
:100B60000CF31A434260032D1CD0C26803238F6824
:100B7000B3409A4307FA06F31A43022DC26011D11B
:100B80006FF0030202EA5C02024404F01C070F2328
:100B9000D2F820E003FA07F50B692EEA0505BB4001
:100BA0002B431362026803234F68B3409A4307F054
:100BB0000303B3401A4317F4403F0260A6D041F24A
:100BC0001803C4F202031A684FF6084842F0010203
:100BD0001A601A68CFF6FF7802F001020292029AB8
:100BE0002CF0030240F2004CC4F2010C624452F8B3
:100BF000083004F00C070F25BD4023EA050E019BC9
:100C0000009D042B38BF1D4605FA07F747EA0E037F
:100C100042F80830DCF800204B6842EA0907DD039F
:100C200058BF22EA0907CCF80070DCF804209D03C5
:100C300042EA090758BF22EA0907CCF80470DCF839
:100C40000820DD0242EA090740F20C4558BF22EABB
:100C50000907CCF80870C4F201052A689B0242EA31
:100C6000090758BF22EA09072F604FE703B0BDE824
:100C7000F08F0000426902EA0103914341EA034117
:100C8000816170471823002A08BF2823C15070478C
:100C900040F2C440C2F200000068704740F2F81011
:100CA00040F2C441C2F20000C2F2000100780A68BA
:100CB000104408607047000080B542F20000C4F2A2
:100CC0000200016841F010010160032000F08EF87D
:100CD0000F2000F005F800F055F8002080BD00005E
:100CE000B0B586B041F21801C4F202010A680446A8
:100CF00042F400620A60096801A801F400610191F0
:100D00000199694600F094FA00F0CCFA4DF683613F
:100D1000C4F21B31A0FB01014FF0FF3000EB914109
:100D200040F2C42042F60042C2F20000C4F20102C6
:100D300040F2E7330025C0E90021C0E90253056114
:100D4000856100F07DFC0546C0B940F2C420C2F2C6
:100D5000000000F0A9FC054680B9192000F032F827
:100D60000F2C0AD819202146002200F02FF840F25B
:100D7000FC10C2F20000046000E00125284606B025
:100D8000B0BD000080B582B041F21800C4F202008C
:100D90000168002241F001010160016801F00101D8
:100DA00001910199416841F08051416040680F21F3
:100DB00000F08050009000986FF0010000F006F8FD
:100DC00002B080BD80B501F0D5FF80BD70B514467E
:100DD0000D46064601F0DEFF2946224601F0F0F9F5
:100DE0000146304601F0DEFF70BD000080B501F025
:100DF000EBFF80BD2DE9F04182B00446807841F2DE
:100E00003006C007C4F2020656D056F8140C10F093
:100E100080580BD156F8140C40F0805046F8140C52
:100E200056F8140C00F080500190019847F200072A
:100E3000C4F200073868C00512D4386840F48070E6
:100E40003860FFF725FF05463868C00508D4FFF76E
:100E50001FFF401B6428F7D9032002B0BDE8F081D2
:100E600056F8100C10F4407015D0616801F4407110
:100E7000884210D056F8100C40F24042C4F2422290
:100E8000012320F4407113600023C007136046F86B
:100E9000101C40F0A28056F8100C616820F44070DD
:100EA0000843B8F1000F46F8100C05D156F8140CA1
:100EB00020F0805046F8140C2068C1071BD1810730
:100EC00021D4410727D481062DD4810333D4410690
:100ED0003BD4010741D4C10647D481054DD4010656
:100EE00055D4C1055DD4C10465D480046BD4002001
:100EF00002B0BDE8F0813168A26821F0030111431E
:100F000031608107DDD53168E26821F44031114359
:100F100031604107D7D53168226921F4402111435E
:100F200031608106D1D53168E26921F010011143A9
:100F300031608103CBD556F82C1CA26B21F48001C3
:100F4000114346F82C1C4106C3D53168226A21F0B2
:100F50002001114331600107BDD53168626921F478
:100F6000401111433160C106B7D53168A26921F43F
:100F70004001114331608105B1D556F82C1CE26A5D
:100F800021F40001114346F82C1C0106A9D556F89E
:100F9000041C626A21F4F871114346F8041CC1056F
:100FA000A1D556F8041CA26A21F47851114346F8E1
:100FB000041CC10499D53168226B21F4807111435E
:100FC0003160800493D53068616B20F40070084371
:100FD0003060002002B0BDE8F081FFF759FE054601
:100FE00041F2883756F8100C80073FF554AFFFF7F1
:100FF0004FFE401BB8424FF00300F3D9EAE7000070
:101000002DE9F04381B0002878D042F20008C4F204
:1010100002080446D8F800000D4600F00700884298
:101020000CD2D8F8000020F007002843C8F80000D0
:10103000D8F8000000F00700A8425FD1206841F214
:1010400004098107C4F2020907D5D9F80010A26883
:1010500021F0F0011143C9F80010C00745D1D8F8BC
:10106000000000F00700A8420CD9D8F8000020F0DA
:1010700007002843C8F80000D8F8000000F0070077
:10108000A8423BD12068410707D5D9F80010E26893
:1010900021F4E0611143C9F80010000708D5D9F820
:1010A0000000216920F4605040EAC100C9F8000046
:1010B00000F00AF9D9F8001044F28042C1F303119C
:1010C000C0F60002515C40F2701220FA01F140F2C9
:1010D000FC10C2F200000068C2F200021160FFF7CB
:1010E000FFFD002001B0BDE8F0836068022809D050
:1010F000012828D159F8041C890307D4012001B024
:10110000BDE8F08359F8041C8901F7D5D9F800101F
:1011100021F003010843C9F80000FFF7B9FD0646B6
:1011200041F28837D9F80000616800F00C00B0EB9C
:10113000810F94D0FFF7ACFD801BB842F2D9032099
:1011400001B0BDE8F08359F8041C8907D6D5DDE766
:1011500070B541F20005C4F20205286840F00100B4
:101160002860FFF795FD04462868800706D4FFF73E
:101170008FFD001B0228F7D9032070BD28681021BD
:1011800061F3C700286068684CF20C01CFF6FF01DC
:1011900008406860FFF77CFD044641F2883600BFD6
:1011A000686810F00C0F06D0FFF772FD001BB0420C
:1011B000F6D9032070BD40F2FC10C2F2000040F2EC
:1011C000701141F200220068C2F20001C0F27A02FE
:1011D0000A60FFF785FD00281CBF012070BD28684C
:1011E0004FF6FF71CFF6F66108402860286820F4BA
:1011F00080202860FFF74CFD044600BF286880016E
:1012000006D5FFF745FD001B0228F7D9032070BD66
:1012100000206860E8622863A968012241F41F0188
:10122000A96040F2E041C4F24221A8600A6070BDAA
:101230000F22026041F20402C4F20202136803F0BA
:1012400003034360136803F0F0038360136803F43F
:10125000E063C36012684FF4E06303EAD202026104
:1012600042F20000C4F20200006800F007000860CB
:101270007047000040F27010C2F200000068704732
:1012800080B5FFF7F7FF41F20401C4F202010968DB
:1012900044F29042C1F30221C0F60002515CC84002
:1012A00080BD000080B5FFF7E5FF41F20401C4F204
:1012B0000201096844F29042C1F3C221C0F6000263
:1012C000515CC84080BD000041F2040CC4F2020C25
:1012D000DCF8003003F00C00082841F20020C0F2D6
:1012E0007A0018BF704744F29841C3F38342C0F6B6
:1012F00000018A5CDCF82810DB0305D440F60010FE
:10130000C0F23D005043704744F2A84301F00F0182
:10131000C0F60003595CB0FBF1F050437047000089
:101320002DE9F04182B0002800F08F80044600785B
:1013300041F20006C007C4F202064BD0706800F00C
:101340000C00042806D13068800343D5606800286B
:1013500040D17AE0706800F00C00082802D1706873
:10136000C003F0D465682DB1B5F5A02F0AD0B5F54E
:10137000803F0BD0306820F480303060306820F43B
:10138000802006E0306840F480203060306840F40F
:1013900080303060F06AA16820F00F000843F062EE
:1013A000FFF776FC002D054611D000BF30688003A2
:1013B00010D4FFF76DFC401B6428F7D908E100BF8B
:1013C000FFF766FC401B64284FF003003AD83068F2
:1013D0008003F5D42078800718D5706810F00C0FC2
:1013E00007D0706800F00C0008286CD17068C0034A
:1013F00069D43068800702D52069012825D130687A
:10140000616920F0F80040EAC100306020780007F0
:101410001FD42078400732D4E56995B1706800F098
:101420000C00082840F08880012D0ED07068216AD9
:1014300000F480328A4208D1616A00F47010884258
:1014400003D1002002B0BDE8F081012002B0BDE868
:10145000F081A06900285BD00020C4F24220012165
:10146000C0F88014FFF714FC054600BF706A8007BF
:10147000CFD4FFF70DFC401B0228F7D9A8E0F06994
:1014800010F0805808D1F06940F08050F061F069A8
:1014900000F080500190019847F20007C4F2000765
:1014A0003868C00526D4386840F480703860FFF78B
:1014B000EFFB05463868C0051CD4FFF7E9FB401B6D
:1014C0006428F7D984E02069002840F20000C4F2C3
:1014D000422053D001210160FFF7DAFB054600BF2F
:1014E000306880073FF58BAFFFF7D2FB401B022827
:1014F000F6D96DE0E5681DB1052D51D0012D53D011
:10150000306A20F001003062306A20F004004EE0C2
:101510000020C4F242200021C0F88014FFF7B8FB7D
:10152000054600BF706A80077FF573AFFFF7B0FB19
:10153000401B0228F6D94BE00027C4F242270020C6
:101540003866FFF7A5FB022D05460BD130688001F8
:1015500056D5FFF79DFB401B02284FF00300F5D93D
:1015600070E700BF306880017FF56BAFFFF790FB3D
:10157000401B02284FF00300F4D963E7002101600B
:10158000FFF786FB054600BF306880077FF53EAF5A
:10159000FFF77EFB401B02284FF00300F4D951E710
:1015A000306A40F004003062306A40F0010030627E
:1015B000FFF76EFB002D054641F2883714D000BFBF
:1015C000306A800713D4FFF763FB401BB842F7D99A
:1015D000032002B0BDE8F081FFF75AFB401BB84280
:1015E0004FF003003FF62EAF306A8007F4D4B8F115
:1015F000000F7FF411AFF06920F08050F0610BE72D
:101600007068D4E9082120F4741008431043706016
:1016100001203866FFF73CFB044600BF30688001BC
:101620003FF50FAFFFF734FB001B02284FF003001C
:10163000F4D907E7704700007047000070470000CA
:10164000002804BF0120704710B5044690F83D0003
:1016500028B9002084F83C00204600F023F802203E
:1016600084F83D002068211D00F02CFF012084F843
:10167000480084F83E0084F83F0084F8400084F875
:10168000410084F8420084F8430084F8440084F860
:10169000450084F8460084F8470084F83D000020A7
:1016A00010BD00007047000090F83D1001291CBFDC
:1016B00001207047022180F83D10016842F6FF3298
:1016C000C868C4F20102914240F00100C8600FDC1A
:1016D000B1F1804F1ED040F20040C4F200008142C0
:1016E00018D040F60000C4F20000814212D024E07D
:1016F00042F60040C4F2010081420BD044F20000E7
:10170000C4F20100814205D043F20040C4F201005E
:10171000814212D188680722C0F201020240062AE3
:101720004FF000000ED0B2F5803F08BF7047086848
:1017300040F00100086000207047086840F0010098
:1017400008600020704700007047000010B5044694
:1017500000680169890744BFC1685FEA817140D4AC
:1017600020680169490744BFC1685FEA417144D4F8
:1017700020680169090744BFC1685FEA017149D463
:1017800020680169C90644BFC1685FEAC1614DD4E0
:1017900020680169C9071CBFC1685FEAC17152D1E5
:1017A00020680169090644BFC1685FEA016151D43C
:1017B00020680169C90544BFC1685FEA016150D46E
:1017C00020680169490644BFC1685FEA41614FD49E
:1017D00020680169890644BFC1685FEA81614ED40F
:1017E00010BD6FF00201016101212177806980073E
:1017F0004CD02046FFF7A8FF4EE06FF004010161D6
:1018000002212177806910F4407F48D02046FFF7FD
:101810009BFF4AE06FF00801016104212177C06954
:10182000800745D02046FFF78FFF47E06FF010019B
:10183000016108212177C06910F4407F41D0204622
:10184000FFF782FF43E06FF001010161204600F0E5
:1018500045F8A5E76FF0800101612046FFF7ECFE37
:10186000A6E76FF4807101612046FFF7E3FEA7E76A
:101870006FF040010161204600F03CF8A8E76FF0EE
:10188000200101612046FFF7D9FE10BD204600F07F
:1018900021F8204600F020F80020207760E720465D
:1018A00000F018F8204600F017F8002020775FE7D6
:1018B000204600F00FF8204600F00EF800202077B8
:1018C0005EE7204600F006F8204600F005F800200C
:1018D00020775DE7704700007047000080B5006822
:1018E00042F60041C4F20101884208BFFFF7D6F971
:1018F00080BD00007047000010B50446C06F20286E
:101900000AD100294FF0010018BF002A00D110BDF4
:1019100094F87400012801D1022010BD012084F840
:1019200074002066204601F00FF9002818BF10BD92
:10193000216E01291CBF012010BD216810220A62FE
:10194000216851E8001F226841F0100142E80013AD
:10195000002BF5D1DBE70000B0B588B0006844F695
:101960000001C4F20001884201D008B0B0BD00F00F
:1019700007FC456900F004FC002405210522002332
:10198000CDE90044CDE90244CDE904440694A847DA
:1019900008B0B0BD7047000070470000816FC06F95
:1019A00008437047B0B50446006840F62F03C1698C
:1019B000026885680B40202B02F0200E07D1BEF193
:1019C000000F04D0616E99B320468847B0BD40F641
:1019D0000F03194213D040F22013C0F2004305F068
:1019E000010C134013EB0C0309D0CB0718BF12F402
:1019F000807340F0A2808B0700F1A980B2E0D4F898
:101A000060C00A40D3063AD5BCF1010F37D110218E
:101A10000162806840063ED4B4F85800B4F85A1009
:101A2000B4F85A20002A1CBF401A5FEA004101D1D5
:101A3000B0BD00BF216851E8001F226821F49071F9
:101A400042E80013002BF5D1216851E8021F2268FB
:101A500021F0010142E80213002BF5D12021E167BA
:101A600000212166616600BF216851E8001F2268DD
:101A700021F0100142E80013002BF5D14EE0C9021D
:101A800051D515F480014ED04FF4801101622046EB
:101A9000FFF780FFB0BD206F016849688AB2002A55
:101AA000C6D0B4F858309A42C2D2A4F85A1080690D
:101AB00020282ED0206850E8000F216820F4807084
:101AC00041E80002002AF5D1206850E8020F2168A1
:101AD00020F0010041E80202002AF5D1206850E818
:101AE000020F216820F0400041E80202002AF5D1EF
:101AF0002020E06700202066206850E8000F216861
:101B000020F0100041E80002002AF5D1206FFEF716
:101B100087FFB4F85800B4F85A10401A81B2204632
:101B2000FFF71AFFB0BD100600F18780500658BFBE
:101B3000B0BD204600F022FEB0BD01230362D4F800
:101B4000803043F00103C4F880308B070AD5BCF124
:101B5000000F07D002230362D4F8803043F004035F
:101B6000C4F880304B070AD5BCF1000F07D004231E
:101B70000362D4F8803043F00203C4F880300B07CE
:101B80000AD55CEA0E0307D008230362D4F880303C
:101B900043F00803C4F880300B050BD512F08063C6
:101BA00008D04FF400630362D4F8800040F02000B6
:101BB000C4F88000D4F8800000283FF439AF02EA6E
:101BC0000100800603D5616E09B120468847206870
:101BD000D4F88010806801F0280100F0400040181F
:101BE00024D0204600F0A2FD20688068400619D568
:101BF000206850E8020F216820F0400041E802020E
:101C0000002AF5D1206F68B142F21971C0F60001C7
:101C10004163FEF725FF00283FF40AAF206F416BB8
:101C20008847B0BD2046FFF7B7FEB0BD2046FFF79E
:101C3000B3FE0020C4F88000B0BDA16E00297FF47F
:101C4000C3AEF5E610B5A0B10446806F28B90020F8
:101C500084F87400204600F025F82420A06720684E
:101C6000016821F001010160204600F081FE012899
:101C700001D1012010BD606A10B1204600F0A2FC25
:101C80002068416821F490414160816821F02A0177
:101C90008160016841F001010160204600F006FD0D
:101CA00010BD000080B586B0006843F60002C4F2A3
:101CB000010200219042CDE90411CDE90211019108
:101CC00001D006B080BD41F21400C4F202004268A7
:101CD00042F480424260426802F480420092009ADC
:101CE000026842F400320260006800F400300090A4
:101CF00000984FF4C06001900220CDE9020103205A
:101D000004900720059001A94FF09040FEF7E4FEF3
:101D100006B080BD80B5C36F202B0BD100294FF0DA
:101D2000010318BF002A01D1184680BD90F8743015
:101D3000012B01D1022080BD012380F874300023E3
:101D4000036603685B681B020CD500BF036853E899
:101D500000CFD0F800E04CF080634EE8003CBCF1CE
:101D6000000FF3D100F0F0FE0023184680BD000004
:101D700070B588B00446006844F20041C4F2000126
:101D800088423AD044F60001C4F20001884221D0D2
:101D900043F60001C4F2010188422CD140F27415CF
:101DA000C2F20005688829180E79411C0028698054
:101DB00008BFFF2E01D1FEF705FE2846314600F090
:101DC00049FA688801222844011D204600F0BCFE23
:101DD00008B070BD00F0D4F9446900F0D1F90026D4
:101DE000042104220023CDE90066CDE90266CDE995
:101DF00004660696A04708B070BD00F0C1F94469BA
:101E000000F0BEF90026022102220023CDE900667F
:101E1000CDE90266CDE904660696A04708B070BD1C
:101E20002DE9F04381B00446806F20280BD10E4687
:101E300000294FF001005AD01746002A57D094F8D5
:101E40007400012803D1022001B0BDE8F083012015
:101E500084F874004FF0000921201D46C4F88090DA
:101E6000A067FEF715FFA4F85070A4F85270A1689F
:101E70000746B1F5805F07D1206900281CBF3046B6
:101E80004E46B046064601E04FF0000884F87490D4
:101E900009E000BF16F8010B21680885B4F852006C
:101EA0000138A4F85200B4F8520088B120468021CD
:101EB00000223B46009500F091FE88B9002EE9D142
:101EC00038F8020B21686FF35F2008850026E5E7EC
:101ED0002046402100223B46009500F07FFE18B1CD
:101EE000032001B0BDE8F0832020A067002001B0EE
:101EF000BDE8F0837047000010B540F23440C2F2F4
:101F0000000004682068B0F804110430FEF771F98D
:101F100020680021A0F8041110BD000000207047C7
:101F200010B582B040F23840C2F20000FFF736FD33
:101F300068B140F23444C2F20004206843F6000362
:101F40000168C4F20103086802689A4201D002B035
:101F500010BDB1F80421002AF9D004316423FFF741
:101F60005FFF58B12068032100688DF807100068F2
:101F70000DF1070101226423FFF752FF2068406939
:101F8000804702B010BD0000B0B540F21435C2F277
:101F90000005287840F23444C2F2000408B12068F9
:101FA000B0BD00F0C7F840F24010C2F2000020605F
:101FB000012028702520FEF705FF252001210122A0
:101FC000FEF704FF40F27410C2F2000041880122C3
:101FD0000844011D40F23840C2F20000FFF79AFEAB
:101FE0002068B0BDB0B5044640F23840C2F20000EF
:101FF000FFF7D4FC98B140F23445C2F200052868DE
:10200000214600680430FEF7FFF82046FEF714F979
:1020100029680968B1F804211044A1F804010020DE
:10202000B0BD000070B5054640F23840C2F2000075
:102030000C46FFF7B3FCB0B140F23446C2F20006E2
:10204000306822460068B0F804110844043029467C
:10205000FEF7B6F830680068B0F804112144A0F823
:102060000411002070BD012070BD0000FEE70000DB
:10207000F0B581B090ED021A0446B8EE411ABDEEFB
:10208000C11AB8EEC11A21EE000ABDEEC00A10EE68
:10209000107AB80002F0B4F9054648B1266828461F
:1020A0003146FEF7D0F8304602F082F92560A7608D
:1020B000002D18BF0125284601B0F0BD70B586B0CF
:1020C000002541F214000595CDE90355CDE90155F0
:1020D000C4F20200016840F2004441F48001016052
:1020E0000168C4F6000401F48001009100990168C0
:1020F000002241F4003101600168082601F400313A
:1021000000910099016841F4802101600068082174
:1021100000F48020009000982046FEF7B3FD0120D7
:10212000CDE9020501A9204601960495FEF7D4FCED
:1021300006B070BD80B540F2384043F60001C2F2EF
:102140000000C4F2010100234FF00C0C4FF4E13207
:1021500080E80E00C0E90333C0E905C3C0E90733D6
:102160004362FFF76FFD002818BFFEF747FC40F2FF
:102170003840C2F20000FFF795FD80BDFEE7000089
:1021800040F20820C2F200000068704780B50520C8
:1021900000F006F840F20821C2F20001086080BD9C
:1021A00010B505200C210524FEF756F840F2581111
:1021B000C2F20001086008464C6010BDFEE7000056
:1021C00000F0070080F00703042B28BF04234FF022
:1021D000FF3C03380CFA03F338BF002099438140D9
:1021E0000CFA00F022EA00000843704700000000EB
:1021F000EFF30980BFF36F8F154B1A681EF0100FB5
:1022000008BF20ED108A20E9F04F10602DE9090089
:102210004FF0500080F31188BFF34F8FBFF36F8FE3
:1022200001F0FEF94FF0000080F31188BDE80900CD
:1022300019680868B0E8F04F1EF0100F08BFB0EC46
:10224000108A80F30988BFF36F8F704700BF00BF0B
:102250007803002010B5FE290FD1044640880028DD
:1022600008BF10BD05A0FFF7BDFEFFF759FE61884E
:10227000201DFDF7BEFF0020608010BD636C65610E
:1022800072206C697374730D0A0000000000000076
:10229000074B19680868B0E8F04F80F30988BFF36E
:1022A0006F8F4FF0000080F31188704700BF00BFB0
:1022B00078030020B0B500F075FA40F21034C2F295
:1022C000000420680068FFF769FB202818BFB0BD34
:1022D000FFF756FFC568FFF753FF42F20532C0F61D
:1022E00000020521A847192002F08AF821684860F9
:1022F0000021017641610161C1608160416001603E
:10230000B0BD0000B0B540F21034C2F20004206845
:10231000416808780F2801D1087E40B10020087676
:1023200048610861C86088604860086018E040F251
:102330003045C2F2000528681922FDF771FF2068B8
:102340000022416840F20C200A60C2F200000368DB
:1023500028684A608A60CA600A614A610A769847BA
:1023600021681922D1E90001FFF7C6FAB0BD0000CB
:1023700080B540F23042C2F20002106040F20C2000
:10238000C2F2000001602720FEF71CFD2720022179
:102390000222FEF71BFD40F21030C2F2000001687D
:1023A0001922D1E90001FFF7A7FA80BD80B5FFF738
:1023B00081FF40F2144040F2F571C2F20000C0F615
:1023C0000001FFF7D5FF80BD80B54FF0500080F3CE
:1023D0001188BFF36F8FBFF34F8F01F029FA30B12F
:1023E0004EF60450CEF200004FF080510160002004
:1023F00080F3118880BD000070B59EB014AC2046FB
:102400002821FDF7F6FE002568463C211395CDE90D
:102410001155CDE90F55FDF7ECFE012014901890F1
:102420004FF4E0104FF4803102261D902046CDE994
:102430001515CDE91B61FEF773FF002818BFFEF7E5
:10244000DDFA0F20CDE90F064FF48060CDE91205CB
:102450000FA802211195FEF7D3FD002818BFFEF743
:10246000CDFA01200090002002906846FEF7C2FCE1
:10247000002818BFFEF7C2FA1EB070BD4EF6885095
:10248000CEF20000016841F4700101607047000065
:1024900080B503A0FFF7A6FDFFF742FD80BD00BF9A
:1024A00054494D31375F49525148616E646C6572D1
:1024B000200D0A0080B540F2C420C2F20000FFF7F0
:1024C00045F980BD80B540F2FF7C0268C4F2000C83
:1024D000604512DD40F60003C4F20003984215D0B7
:1024E00043F20043C4F2010398420FD042F6004386
:1024F000C4F20103984209D00CE0B0F1804F05D03E
:1025000040F20043C4F20003984203D14B6822F02A
:1025100070021A4343F2FF33C4F20103984209DC0C
:10252000604516DCB0F1804F28D040F20043C4F281
:10253000000321E044F2FF33C4F20103984211DCAE
:1025400043F20043C4F20103984217D044F200035F
:1025500010E040F60003C4F2000398420ED042F6A9
:10256000004307E044F60003C4F20103984205D09B
:1025700044F20043C4F20103984203D1CB6822F431
:1025800040721A434B6922F0800E8A6843EA0E03B8
:10259000D1F800C00360C262A0F18042A2F5963279
:1025A0004FEAB222072AC0F828C007D8012303FA4D
:1025B00002F212F0E50F1CBF0969016301214161BC
:1025C00080BD000080B5416ACA070CD18A0715D4C6
:1025D0004A071ED40A0727D4CA0630D48A0639D43B
:1025E0004A0657D541E00268D0F828C0536823F462
:1025F000003343EA0C0353608A07E9D50268D0F838
:102600002CC0536823F4803343EA0C0353604A0719
:10261000E0D50268D0F830C0536823F4802343EA41
:102620000C0353600A07D7D50268D0F834C053684A
:1026300023F4004343EA0C035360CA06CED5026874
:10264000D0F838C0936823F4805343EA0C039360B6
:102650008A06C5D50268D0F83CC0936823F40053BD
:1026600043EA0C0393604A0614D50268D0F840C0D0
:102670005368BCF5801F23F4801343EA0C035360B6
:1026800008D1D2F804C0D0F844E02CF4C00343EAE7
:102690000E035360090658BF80BD0168806C4A680C
:1026A00022F400221043486080BD0000B0B582B023
:1026B00004460020C4F88000FEF7EAFA21680546C7
:1026C000096809070BD56FF07E4C20464FF40011C6
:1026D00000222B46CDF800C000F080FA78B92068BF
:1026E000006840070ED56FF07E4C20464FF4800105
:1026F00000222B46CDF800C000F070FA10B1032084
:1027000002B0B0BD2020A067E0670020206684F8FA
:10271000740002B0B0BD000080B5406A0021A0F88E
:102720005A10A0F85210FFF737F980BD016851E840
:10273000001F026821F4907142E80013002BF5D1CC
:10274000016851E8021F026821F0010142E802130A
:10275000002BF5D1016E01290AD100BF016851E8B3
:10276000001F026821F0100142E80013002BF5D190
:102770002021C167002101664166704780B500BF16
:10278000016851E8001F026821F0400142E800138F
:10279000002BF5D12021816700218166FFF7AAFB7C
:1027A00080BD0000B0B500F0B5FA40F2182444F640
:1027B000000E48F2A062C2F20004C4F2000EC0F2A1
:1027C00001024FF400534FF48051C4E900E204F1D8
:1027D000080200204FF0040C4FF4806582E82A10B4
:1027E0004FF4004102224FF48033C4E90F00C4E9E2
:1027F0001100C4E90710C4E90920C4E90B30C4E999
:102800000D002046FFF71EFA002818BFFEF7F6F865
:1028100040F2102040F21031C2F20000C2F200017A
:1028200004600860B0BD000080B5B0F85C100268BC
:10283000C36F222B41D1928C436D114023F8021BB0
:102840004365B0F85A100139A0F85A10B0F85A1080
:10285000002918BF80BD00BF016851E8001F026851
:1028600021F4907142E80013002BF5D1016851E882
:10287000021F026821F0010142E80213002BF5D18A
:102880002021C16700214166026E012A1AD101662A
:10289000016851E8001F026821F0100142E80013AE
:1028A000002BF5D10168CA69D20644BF10220A6222
:1028B000B0F85810FFF750F880BD906940F008005C
:1028C000906180BDFFF754FA80BD000080B5B0F87C
:1028D0005C100268C36F222B41D1928C436D114072
:1028E0001970416D01314165B0F85A100139A0F8F5
:1028F0005A10B0F85A10002918BF80BD016851E87D
:10290000001F026821F4907142E80013002BF5D1FA
:10291000016851E8021F026821F0010142E8021338
:10292000002BF5D12021C16700214166026E012AEA
:102930001AD10166016851E8001F026821F01001F8
:1029400042E80013002BF5D10168CA69D20644BFE2
:1029500010220A62B0F85810FEF7FEFF80BD9069A1
:1029600040F00800906180BDFFF702FA80BD0000D2
:10297000B0B5044602688068D4E903316569014353
:10298000D4F81CC02943156849F20C6041EA0C01D7
:1029900025EA000008431060506820F440501843B6
:1029A0005060A069216A9368084323F430610843AA
:1029B000906044F6FF30C4F2000082424FF01001F4
:1029C00018DD44F60040C4F20000824225D045F2F2
:1029D0000000C4F20000824226D043F60000C4F298
:1029E0000100824232D141F23000C4F2020001689B
:1029F00051A227E044F20040C4F2000082421AD003
:102A000044F60000C4F2000082421FD141F23000BF
:102A1000C4F202000068810C13E041F23000C4F2FD
:102A200002000068010D0CE041F23000C4F2020027
:102A30000068810D05E041F23000C4F20200006838
:102A4000010C39A201F0030052F8201041F20020DD
:102A5000BCF5004FC0F27A000ED1082920D800251D
:102A6000DFE801F00519251E221E1E1E3800002574
:102A7000FEF706FCE0B94BE0082936D80025DFE870
:102A800001F0052F3B34383434344C000025FEF778
:102A9000F7FB90BB3CE00025FEF704FC40B937E0B3
:102AA0000020012520B933E00025FEF70DFC78B3A6
:102AB00061684A0802EB4000B0FBF1F14FF6F0709C
:102AC000084005D0C1F3420122680843D0601FE0EE
:102AD00001251DE04FF4004000250028E8D117E053
:102AE0000025FEF7DFFB40B912E00020012520B9E8
:102AF0000EE00025FEF7E8FB50B1616800EB5100E5
:102B0000B0FBF1F080B2102826BF2168C860012513
:102B1000002128466166A166B0BD4FF40040002543
:102B20000028EAD1F4E700BF000000000400000024
:102B30000800000002000000010000000400000086
:102B400008000000020000004165A0F85820A0F82D
:102B50005A2081680022426639B1B1F5805F08D100
:102B6000016941B940F2FF1106E0016919B17F2105
:102B700002E0002100E0FF21A0F85C100021C0F875
:102B800080102221C16700BF016851E8021F02685E
:102B900041F0010142E80213002BF5D18168B1F543
:102BA000805F01D1016999B142F6CD01C0F6000103
:102BB0004166002180F87410016851E8001F026826
:102BC00041F4907142E80013002BF5D100207047CA
:102BD00042F62901C0F60001EAE700002DE9F043C2
:102BE00081B004460068C0690840401AB0FA80F01D
:102BF0004009904260D1DDF8208015460E46994686
:102C000008F1010709E000BF2068C0693040801B5F
:102C1000B0FA80F04009A8424ED1002FF4D0FEF760
:102C200037F8B8F1000F29D0A0EB0900404525D8AE
:102C300020680168490744BFC1695FEA0151E3D5D3
:102C40004FF40061016200BF206850E8000F216866
:102C500020F4D07041E80002002AF5D1206850E845
:102C6000020F216820F0010041E80202002AF5D19C
:102C70002020A067E067C4F8800016E0206850E8D4
:102C8000000F216820F4D07041E80002002AF5D13D
:102C9000206850E8020F216820F0010041E802029C
:102CA000002AF5D12020A067E067002084F8740096
:102CB000032001B0BDE8F083002001B0BDE8F0833F
:102CC00080B540F23840C2F20000FEF76BFE40F2E1
:102CD0007410C2F2000041880A18002918BF501E63
:102CE0000430FFF77FF9FFF71BF980BD80B540F294
:102CF0009C20C2F200000068FEF754FE80BD000078
:102D000080B540F21030C2F2000000680068FEF7A3
:102D100049FE80BD80B586B041F21400C4F20200C5
:102D200001680DF1040E41F480210160016801F495
:102D3000802101910199816841F48021816080683E
:102D400000F480200190019844F26C40C0F600002D
:102D500090E80E1000698EE80E10059040F20040D9
:102D6000C4F6000001A9FDF7B7FE06B080BD000063
:102D7000FEE70000002848BF704700F01F01012255
:102D800002FA01F14EF200124009CEF2000242F8BE
:102D9000201070474EF60C50CEF200000068C0F3D1
:102DA000022070474EF6145300F00F02CEF20003DB
:102DB00009011A4400F16043B0F1FF3FC8BF03F5B9
:102DC00064421170704700004EF60C51CEF20001C3
:102DD0000A684FF6FF031A4060F30A2242F080604F
:102DE00040F0FD7008607047D0E90001002918BF6D
:102DF000013900EB8100704710B50446FFF7F4FF7E
:102E0000D4E9011200290B4618BF0123914218BFD3
:102E100000EB830010BD000010B504460068616837
:102E2000FDF7E7F90020606010BD00004068B0FACF
:102E300080F040097047000070B586680C468E42ED
:102E400011D9054600686A682044411C121BFDF731
:102E5000E7F9D5E9000100EB8100002140F8041CEE
:102E60006868013868600020A64288BF012070BDF4
:102E7000F0B581B00446406860B10D4600270026D9
:102E800022683146D019A84760680136864207F1AA
:102E90000407F5D301B0F0BD82688A4292BF4FF0BB
:102EA000FF30006850F821007047000080B5FDF742
:102EB00003FFFFF7A1FAFFF701F9FFF765F8FFF746
:102EC00065F941F65830FDF7F3FDFFF76FFA00F0B2
:102ED0005FFB00F0B5F8002080BD00002DE9F04F49
:102EE00087B0834680680591002841D01D469046F2
:102EF000002105E00699DBF808000131814237D254
:102F0000DBF8000001EB4109069150F82900059912
:102F1000DDE91446DDF840A08842EBD1DBF8000083
:102F200000EB8900406841680029E3D0002700BF1A
:102F30004269394690478446129801A90090139837
:102F4000119B51C12946A6462C463546169E404641
:102F5000524604962E4625467446E047DBF80000AC
:102F6000013700EB8900406841688F42E0D3C1E738
:102F700007B0BDE8F08F000080B58168002918BF58
:102F8000012117D0D0F800C0DCF80030934211D0F6
:102F90000CF10C0C002300BF816801338B424FF011
:102FA000000138BF012105D2DCF800E00CF10C0C67
:102FB0009645F1D1084680BD10B58268531C042B9C
:102FC00088BF10BD036802EB4202D1E900E48968C2
:102FD00003EB820C43F822E0CCE901418168013126
:102FE000816010BD70470000F0B581B0044600203C
:102FF00015468DF8030020460A460E46FFF7BCFF33
:103000008DF803009DF80300C00718D19DF8030058
:10301000C00712D140F21837C2F200070020B86092
:1030200014203E60FDF7BEFCC3692946002278608B
:10303000984720463946FFF7BFFF01B0F0BDFEDEDE
:1030400080B500F0A5FA002080BD000070B50446F0
:1030500000F00AFA40F2C840C2F20000016840F2F3
:10306000783501310160C2F20005296840F28476AA
:10307000C2F2000641B1306860B92868E16AC06AEE
:10308000884298BF2C6005E02C600068012801D1BF
:1030900000F0CAF840F2D840C2F20000016840F2E5
:1030A000DC4201310160E06AC2F2000201211368D2
:1030B00081401943116040F2883100EB8000C2F278
:1030C000000101EB8000211D00F0B6F900F0F0F9DD
:1030D000306880B12868E16AC06A884228BF70BD44
:1030E0004EF60450CEF200004FF080510160BFF365
:1030F0004F8FBFF36F8F70BDF0B581B040F2CC45FC
:10310000C2F200052868E0B140F2A47640F2C84758
:10311000C2F20006C2F2000700F0A6F9F068C46827
:10312000201D00F059F938680138386028680138E6
:10313000286000F0BDF9204600F006F82868002855
:10314000EAD101B0F0BD000010B5044690F851007E
:10315000022808BF10BD012803D030B9206B00F051
:10316000BFF9204600F0BCF910BD4FF0500080F3CD
:103170001188BFF36F8FBFF34F8F00BFFEE70000D2
:1031800040F288344EF60455C2F20004CEF2000537
:103190004FF08056FFF7B0FF20680228FAD32E6068
:1031A000BFF34F8FBFF36F8FF4E700002DE9F047B7
:1031B000DDE909878246386B089C00EB8200043801
:1031C000994620F0070600200A5C3B1883F834205B
:1031D0000A5C1AB10F2800F10100F5D30025381D53
:1031E00087F84350062C28BF0624FC62C7E9114526
:1031F00000F01EF907F1180000F01AF984F007003A
:10320000B861304651464A463F617F62FD6487F8A7
:10321000505000F0B1F8B8F1000F386018BFC8F88E
:103220000070BDE8F0870000B0B540F2883500249A
:10323000C2F20005281900F0EFF814348C2CF9D1F3
:1032400040F2E444C2F20004204600F0E5F840F207
:10325000F845C2F20005284600F0DEF840F2707032
:10326000C2F2000000F0D8F840F2A470C2F20000F0
:1032700000F0D2F840F29070C2F2000000F0CCF8FA
:1032800040F27C30C2F20000046040F28430C2F2AE
:1032900000000560B0BD000080B540F28872C2F247
:1032A000000200BF114612688242FBD3D1F804C06D
:1032B00001EB0C03834203D1406860444860084638
:1032C000D0F804C000EB0C03934201D013460BE08E
:1032D00040F28033C2F200031B689A4204D0D2E964
:1032E000003E0EEB0C0242608142036018BF086092
:1032F00080BD000008480068006880F308884FF02F
:10330000000080F3148862B661B6BFF34F8FBFF33D
:103310006F8F00DF00BF00BF08ED00E040F27C309F
:10332000C2F200000168096821B10068C068C06885
:10333000406801E04FF0FF3040F26871C2F20001D6
:103340000860704781B00020009040F20020C2F277
:10335000000000684FF0500181F31188BFF36F8FB8
:10336000BFF34F8F013001D0FEE700BF0098002867
:10337000FCD001B070470000034643F24530C0F670
:1033800000004FF0807C21F0010103E903106FF091
:10339000020043F8240CA3F1440043F8202C7047AA
:1033A00070B504468068904212D90E466168154691
:1033B000814205D1B7EE080A2046FEF759FE38B122
:1033C000206840F82560606801306060012070BDB1
:1033D000002070BD40687047D0E9013201699A60F1
:1033E000D1F804C082688445536008BF4A60002257
:1033F00002610868013808600868704740F2147379
:10340000C2F20003036040F21050C2F200000860F4
:1034100080201060704700004FF0FF31024642F8F4
:10342000081F00214260C0E90322016070470000CC
:103430000021016170470000D0F800C043680861B6
:103440009A684B608A609A68996051600CF101013A
:1034500001607047DFF80C00016841F47001016001
:10346000704700BF88ED00E04FF0500080F31188F6
:10347000BFF36F8FBFF34F8F40F20020C2F2000006
:1034800001684A1C026001B170474EF60450CEF24A
:1034900000000068000608BF70474FF0500080F33E
:1034A0001188BFF36F8FBFF34F8F00BFFEE700009F
:1034B00040F20020C2F20000016839B10139016018
:1034C00018BF7047002080F3118870474FF05000FC
:1034D00080F31188BFF36F8FBFF34F8FFEE70000BB
:1034E000B0B5002808BFB0BD044640F2E040C2F2CB
:1034F0000000007854F8041C002818BF4FF000406A
:1035000008420CD0A4F108052A6892B14FF050008F
:1035100080F31188BFF36F8FBFF34F8FFEE74FF03B
:10352000500080F31188BFF36F8FBFF34F8F00BF40
:10353000FEE721EA000044F8040C00F069F840F2CC
:103540000C51C2F2000154F8040C0A6810440860DF
:103550002846FFF7A1FE00F01DFAB0BD4EF21000A4
:10356000CEF2000000210160816040F27011C2F2D1
:103570000001096844F6D352C1F26202A1FB0212B3
:103580004FF0FF3101EB921141600721016070475C
:1035900010B586B0002405A804A903AACDE9044407
:1035A000FFF72CFFDDE9032005990023CDE9010198
:1035B00043F28110C0F6000013A1009400F0FEF861
:1035C00040F21071C2F200010860D8B14FF0500013
:1035D00080F31188BFF36F8FBFF34F8F40F2687095
:1035E000C2F200004FF0FF31016040F28470C2F27D
:1035F00000000121016040F2B870C2F200000460D6
:1036000000F052F806B010BD49444C4500000000DF
:1036100040F2D440C2F200000168013101607047FD
:1036200040F2D440C2F20000006830B140F2BC70F9
:10363000C2F2000001210160704740F2BC70C2F28A
:1036400000000021016040F2DC40C2F2000000688E
:10365000B0FA80F0C0B2C0F11F0040F2883100EB38
:103660008000C2F2000151F8202092B101EB8000ED
:1036700050F8041F4968021D9142016001D1496858
:103680000160006840F27831C068C2F20001086051
:1036900070474FF0500080F31188BFF36F8FBFF376
:1036A0004F8F00BFFEE7000080B582B04EF20040B1
:1036B000CEF200004CF27021C4F20F11D0F80029B4
:1036C0004B1C9A4209D14FF0500080F31188BFF390
:1036D0006F8FBFF34F8F00BFFEE7D0F800298A42FB
:1036E00009D14FF0500080F31188BFF36F8FBFF303
:1036F0004F8F00BFFEE7017840F2BC420191FF21ED
:1037000001700178C2F200028DF803109DF80310D9
:1037100001F05001117040F2C041C2F200010722D5
:103720000A609DF90320B2F1FF3F0CDC0A6800BF7C
:103730009DF80330013A5B008DF803309DF90330AA
:10374000002BF5D40A600A68032A2DD14FF4E063F8
:1037500003EA02220A6001990170D0F8201941F4AD
:103760007001C0F82019D0F8201941F07041C0F85C
:103770002019FFF7F3FE40F20020C2F20000002102
:103780000160FFF767FE4EF63470CEF2000001686C
:1037900041F040410160FFF7ADFDFFF741FFFFF74A
:1037A000D1FD002002B080BD4FF0500080F31188A1
:1037B000BFF36F8FBFF34F8FFEE7000070B586B089
:1037C0000B9CBCB10C9EF6B154250495049D542D60
:1037D00023D10A9D3463022486F8514005ACCDE91B
:1037E00000540296FFF7E2FC3046FFF72FFC0598E5
:1037F00006B070BD4FF0500080F31188BFF36F8F9B
:10380000BFF34F8FFEE74FF0500080F31188BFF3F6
:103810006F8FBFF34F8F00BFFEE74FF0500080F374
:103820001188BFF36F8FBFF34F8F00BFFEE700001B
:103830002DE9F04F81B040F2D440C2F200000068A0
:1038400040B140F2D040C2F20000016800240131D2
:10385000016093E040F2B870C2F2000001684E1CB3
:10386000066021D340F27C30C2F200000168096892
:1038700049B14FF0500080F31188BFF36F8FBFF351
:103880004F8F00BFFEE740F28432C2F200020168AF
:103890001368036040F26C701160C2F200000168AE
:1038A00001310160FFF73AFD40F26871C2F2000198
:1038B000086840F2783A8642C2F2000A01D2002437
:1038C0004EE040F27C3BC2F2000BDBF8000000242B
:1038D0000068D8B340F2DC490127C2F200091FE0BA
:1038E000D8F82C00D9F8001007FA00F21143C9F8F3
:1038F000001040F2883100EB8000C2F2000101EBC1
:1039000080002946FFF798FDD8F82C00DAF800105F
:10391000C96ADBF800208842106828BF3C46C0B165
:10392000DBF80000C068D0F80C80454655F8040F5D
:10393000864210D32846FFF74FFDD8F8280000280C
:10394000CED008F11800FFF747FDC9E74FF0FF3070
:1039500005E04FF0FF3040F26871C2F200010860EC
:10396000DAF8000040F28831C06AC2F2000100EBD0
:10397000800051F82000012888BF012440F2BC706B
:10398000C2F200000068002818BF0124204601B0E0
:10399000BDE8F08F2DE9F04F81B040F2D444C2F27F
:1039A0000004206868B1FFF75FFD206801382060DF
:1039B000206880B10024FFF77BFD204601B0BDE800
:1039C000F08F4FF0500080F31188BFF36F8FBFF37B
:1039D0004F8F00BFFEE740F2C840C2F2000000680F
:1039E00000285FD040F27076C2F20006306840F2E4
:1039F000BC78C2F2000898B340F2DC4540F2883946
:103A000040F2783A4FF0010BC2F20005C2F2000911
:103A1000C2F2000AF068C76807F11800FFF7DCFC83
:103A20003C1D2046FFF7D8FCF86A29680BFA00F223
:103A3000114300EB8000296009EB80002146FFF76D
:103A4000FBFCF86ADAF80010C96A884228BFC8F897
:103A500000B030680028DDD1002F18BFFFF75EFCF2
:103A600040F2D044C2F2000425685DB1012600BFD7
:103A7000FFF7DEFE002818BFC8F80060013DF7D14F
:103A800000202060D8F8000070B14EF60450CEF24D
:103A900000004FF080510160BFF34F8F0124BFF34E
:103AA0006F8F88E7002486E7002484E70FB4084B73
:103AB00010B504A902AA039800F0DEF8044602A992
:103AC000002000F070FC204610BC5DF814FB0000E4
:103AD000A743000802E008C8121F08C1002AFAD153
:103AE00070477047002001E001C1121F002AFBD17E
:103AF000704700002DE9FF5F82B00021DDE904304E
:103B0000020DDDF840B0034318D044F61050A2F285
:103B1000FF3242431514119801281FD0A5EB0B006A
:103B2000401C5FEA000A4FF000064E4FDFF8389164
:103B3000B046504615D5CAF1000413E0119801248F
:103B40004AA3012801D16FEA0B010298119AC0E93A
:103B50000031C0E9024206B0BDE8F09FCBF10000A1
:103B6000DFE704460021404A491842EB0450CDE902
:103B7000001012E0E00707D032463B464046494677
:103B8000FCF71FFC8046894632463B4610461946E4
:103B9000FCF717FC06460F466410002CEAD1DDE95D
:103BA0000401DDE90023BAF1000F06DAFCF709FC95
:103BB00042464B46FCF705FC05E0FCF774FC424628
:103BC0004B46FCF770FC04460E460022284BFCF7DF
:103BD000C7FD03D84FF0FF30014607E00022254B18
:103BE00020463146FCF746FBFCF7A1FD102409E016
:103BF000002C0ADB0A220023FCF7DAFC039B30329C
:103C00001A55641E50EA0102F2D1641C039AC4F1F1
:103C100011031444119A012A03D0012208430DD143
:103C20000AE0084304D000204FF0110B119072E716
:103C3000A3EB0B056D1E0DE05B4504DD4FF00002AC
:103C400005F1010504E003DA4FF00002A5F10105DA
:103C5000002AECD002981199C0E90231C0E9004570
:103C600079E70000000014400000F03F3000000041
:103C70000000F0430000E03F2DE9FF4F95B09B4668
:103C80008946064600250FE2252877D100242746DD
:103C9000F84A0121059400E0044316F8013F203B57
:103CA00001FA03F01042F7D130782A2811D06FF0D2
:103CB0002F033078A0F13002092A16D8059A44F073
:103CC000020402EB820203EB42021044761C0590D0
:103CD000EFE759F8042B0592002A03DA504244F426
:103CE0000054059044F00204761C30782E2816D13A
:103CF00016F8010F44F004042A280DD06FF02F02AB
:103D00003078A0F13003092B09D807EB870302EBC9
:103D10004303C718761CF3E759F8047B761C307808
:103D20006C280FD006DC4C2817D068280DD06A28E4
:103D300014D104E0742810D07A280FD10DE044F497
:103D400000140AE044F4801401E044F44014727852
:103D5000824202D104F58014761C761C30786628E5
:103D60000BD013DC582877D009DC002875D0452803
:103D7000F6D04628F4D047281AD19DE118E06328F0
:103D800035D0642879D0652812D195E1702873D098
:103D900008DC6728F1D069286FD06E280DD06F2815
:103DA00006D1B5E073282CD0752875D0782874D04A
:103DB0005A46179990476D1C75E1C4F302500228CA
:103DC00009D003280DD0D9F8001004280DD00D60BB
:103DD00009F1040967E1D9F80010EA17C1E90052B6
:103DE000F6E7D9F800100D80F2E70D70F0E719F84A
:103DF000041B8DF8001000208DF80100EA46012018
:103E000003E059F804AB4FF0FF3061074FF00001B9
:103E100002D40DE008F101018846B9420FDA80456D
:103E2000F8DB1AF808100029F4D108E008F10101C4
:103E300088468142FADB1AF808100029F6D1059865
:103E40005B46A0EB080721463846179A00F094FA23
:103E5000284400EB080507E04DE029E10DE01AF8E1
:103E6000010B5A4617999047B8F10108F7D25B4603
:103E700021463846179A13E142E00A220092C4F321
:103E800002524FF0000A022A08D059F804CB032A44
:103E90004FEAEC710AD00DE029E02AE009F10701B0
:103EA00021F00702F2E802C1914609E00FFA8CFC0A
:103EB0004FEAEC71042A03D14FFA8CFC4FEAEC7103
:103EC000002907DA0A460021DCF1000C61EB02014F
:103ED0002D2202E0220504D52B228DF80420012298
:103EE00003E0E20701D02022F7E7904659E00A21DB
:103EF00002E010220DE010214FF0000A00910BE0CB
:103F000010224FF0000A44F004040827009203E056
:103F100008224FF0000A0092C4F30252022A05D090
:103F200059F804CB0021032A08D009E009F1070160
:103F300021F00702F2E802C1914605E01FFA8CFC6D
:103F4000042A01D10CF0FF0C4FF00008220728D5FD
:103F5000702806D0009B83F0100353EA0A0305D0B3
:103F60000EE040228DF80420012208E05CEA010204
:103F700006D030228DF804208DF8050002229046EC
:103F8000009B83F0080353EA0A030AD15CEA0102AA
:103F900001D1620705D530228DF804204FF00108C9
:103FA0007F1E582804D034A003900EA802900DE084
:103FB00036A0F9E753466046009AFCF7F9FA8446C2
:103FC0000398825C0298401E029002705CEA010035
:103FD000F0D1029806A9081A00F1200A600702D55C
:103FE00024F4803400E00127574502DDA7EB0A00E6
:103FF00000E0002000EB0A01009005984144401ABF
:104000000590E00306D45B462146179A059800F018
:10401000B3F90544002706E001A85A46C05D179988
:1040200090476D1C7F1C4745F6DBE0030CD55B46D3
:104030002146179A059800F09FF9054404E03020C6
:104040005A46179990476D1C0099481E0090002908
:10405000F5DC08E0029802995A460078491C029162
:10406000179990476D1CBAF10001AAF1010AF1DC21
:1040700065E100000928010030313233343536372C
:1040800038396162636465660000000030313233A4
:104090003435363738394142434445460000000044
:1040A00000F058F90544761C307800287FF4ECAD18
:1040B00019B02846BDE8F08F620700D4062709F141
:1040C000070222F0070CFCE80223E14603F0004857
:1040D0005FEA080C02D00FF2702C0DE05FEA045C7E
:1040E00002D50FF2682C07E05FEAC47C02D00FF221
:1040F000602C01E0AFF2700C4FF0FF3823F000436A
:10410000CDF850C065280CD006DC452809D04628DB
:104110001DD047283DD13DE0662818D067287ED1C4
:1041200038E00021112F01DB112000E0781CCDE9DF
:10413000000106A90EA8FFF7DDFCDDE90F010E9ACC
:1041400003910021009207F1010A04914DE04FF024
:1041500000400097CDE9011006A90EA8FFF7CAFCA0
:10416000DDE90F0203920E9B11990022DDF80CA0ED
:104170000093049211B9791C00EB010AB7EB0A0015
:1041800004D4C0F1FF3007F1010A0490AAEB070044
:10419000019044E0012F00DA01270021112F01DDF9
:1041A000112000E03846CDE9000106A90EA8FFF76E
:1041B000A1FCDDE90F010E9A039100210491009208
:1041C000BA4621070CD40399514500DA8A46BAF160
:1041D000010F05DD009AAAF10101515C302908D0D8
:1041E000B84202DA10F1040F06DA0121CDE901101C
:1041F00015E0AAF10101E9E7002805DC0499014472
:104200000491AAEB000102E0411C514500DD8A4601
:104210000499401A401C01904FF000400290200782
:1042200004D40198504501DBCDF8048000208DF8BE
:104230004F0002980DF14F07B0F1004F25D02B2011
:104240000E9002984FF0020800280CDA40420290CB
:104250002D200E9007E00A210298FCF793F93031E7
:10426000029007F8011DB8F10001A8F10108F2DC85
:1042700002980028EFD1791E0E980870307800F06F
:10428000200040F0450007F8020D12A8C01B00F105
:1042900007081498007800B1012000EB0A0101988A
:1042A00001EBE07105984144401A401E0590E0037F
:1042B00006D45B462146179A059800F05DF8054440
:1042C0001498007818B15A46179990476D1CE0036E
:1042D00024D55B462146179A059800F04DF8054411
:1042E0001CE00498002807DBDDE90301884203DDB8
:1042F0000098405C179901E0179930205A46904782
:10430000049805F10105401C04900198401E01909D
:1043100004D12E205A46179990476D1CBAF100011E
:10432000AAF1010ADDDC05E017F8010B5A461799DE
:1043300090476D1CB8F10001A8F10108F4DC5B4660
:104340002146179A0598ABE62D0000002B000000CF
:10435000200000002DE9F041044600251E461746C6
:10436000880404D405E039462020B0476D1C641E43
:10437000F9D52846BDE8F0812DE9F0410446002535
:104380001E469046C80301D5302700E02027880448
:1043900004D505E041463846B0476D1C641EF9D58A
:1043A0002846BDE8F0810A68531C0B601070704706
:1043B00010B5002821D0114B0022001F196803E01E
:1043C000814203D80A4649680029F9D152B11368DD
:1043D000841A9C4204D1006818441060104602E020
:1043E000506000E0186039B102680B1A934203D1A3
:1043F0000B681A4402604968416010BD000000204B
:10440000F0B50B30154D20F007010024144A0FE0E1
:1044100003688B420BD38B4205D95E1A4318476859
:10442000C3E9006700E04368136002C004E0021DB6
:1044300010680028ECD12046002802D1286808B175
:104440000020F0BD064A07481060074A121A22F001
:104450000702C0E9002401202860D7E704000020FB
:1044600000000020C4070020C00900200008000050
:104470000200000000000000030000000700000030
:104480000000000000000000010203040607080904
:1044900000000000010203040203040506070809E6
:1044A0000A0B0C0D0E0F101001020304050607087D
:1044B000090A0B0C0D0E0F10D84400080000002054
:1044C00008020000B4070008404500080802002068
:1044D000B80B0000E43A000801152F2D2E0008D576
:1044E000330008992E0008392E2C08A133000871DA
:1044F0002E0008E92D0EFF08F92D0008192E0008DE
:10450000380400207132382C20E51F0008211F00DC
:10451000082520DA081D1F0008F91E00082DE92FC4
:104520000008E52F0008DD2E00080584127A0080BF
:104530004201421055AAAAAAAA00000000000000E9
:040000050800018965
:00000001FF
